:020000040000FA
:060000000A128A110C280F
:10000800FE00030EF2000A08F3000A128A11722891
:100018000A128A110F28F701F801F90183010A125F
:100028008A110529F6004E28831603130F138F1221
:100038000F127028831603130F138F120F167028D0
:10004800831603130F138F160F12702883160313CA
:100058000F138F160F167028831603130F178F129E
:100068000F127028831603130F178F120F1670289C
:10007800831603130F178F160F1270288316031396
:100088000F178F160F167028831603130F178F1666
:100098000F1270287608F400F5017508003A031964
:1000A800562848287408003A03191828013A0319F1
:1000B8001E28033A03192428013A03192A28073A63
:1000C80003193028013A03193628033A03193C2842
:1000D800013A0319422848280F1408000B1C7528F8
:1000E8007628A32883120313061C7B287C287E28E5
:1000F800F801F80A861C812882288428F701F70A63
:1001080006188728882894287803031D8C288D28AA
:1001180094280130F1007108F90779088800F8017E
:10012800861897289828A2287703031D9C289D28BD
:10013800A2280130F90279088800F7010B10831210
:1001480003138C1DA828A928B22879080A128A1135
:100158002A210A128A11831203138C1173088A0048
:10016800720E8300FE0E7E0E090007300A128A11F5
:1001780016200A128A118316031381138316031794
:1001880088018901831603138501033086008701DE
:10019800880189018312031385018601870188017B
:1001A80089010A128A1119210A128A118316031366
:1001B8008516F401F501F60124300A128A11E720A8
:1001C8000A128A11080083120313A000831603136E
:1001D800871283120313201DF228F328F9287608C2
:1001E8008316031394008715FF2874087604831672
:1001F80003139400871183120313200875049400D5
:100208000800F9010A128A11B9200A128A110D3060
:1002180083120313A200FB30A100A10B1129A20B2A
:1002280011290B290A128A110C288B178B150B1010
:1002380003308316031396000B17831203138C11D4
:10024800831603138C1507309F000800F000700810
:08025800831203139300080058
:04400E00D620FF3F7A
:00000001FF
