:020000040000FA
:060000000A128A110C280F
:10000800FE00030EF0000A08F1000A128A11BD284A
:100018000A128A110F2883010A128A11AF28F400E4
:100028004B28831603130F138F120F126D28831694
:1000380003130F138F120F166D28831603130F1354
:100048008F160F126D28831603130F138F160F16B2
:100058006D28831603130F178F120F126D2883163E
:1000680003130F178F120F166D28831603130F171C
:100078008F160F126D28831603130F178F160F167E
:100088006D28831603130F178F160F126D28740827
:10009800F200F3017308003A03195328452872083F
:1000A800003A03191528013A03191B28033A0319C2
:1000B8002128013A03192728073A03192D28013A5C
:1000C80003193328033A03193928013A03193F2839
:1000D80045280F14080006300A128A1113200A1244
:1000E8008A110130831603178800890101308316AD
:1000F800031385008312031385010330831603134A
:100108008600831203138601870183160313870170
:10011800880183120313880183160313890183124C
:100128000313890108000630831203138100883005
:10013800831603138100A9308B00033096000C1737
:10014800831203130C17831603139F014130831284
:1001580003139F0008000A128A116F200A128A11DD
:100168000A128A1197200A128A11B9280A128A11CA
:100178000C2871088A00700E8300FE0E7E0E09009E
:04400E00D420FF3F7C
:00000001FF
