:020000040000FA
:100000000A128A11EA2F00308A000408840A820743
:100010000034533431343A340034533432343A34C3
:0A0020000034533433343A34003412
:100CBE00F0007008831203138800080000300A1237
:100CCE008A1188260A128A1101300A128A11882680
:100CDE000A128A110800F200831203130914720813
:100CEE000A128A115F260A128A118312031309153A
:100CFE001A30F100F10B812E00008312031309113B
:100D0E000800F30083120313091073080A128A11E4
:100D1E005F260A128A118312031309150B30F20093
:100D2E006230F100F10B992EF20B992E0000831216
:100D3E0003130911080007300A128A118E270A12AE
:100D4E008A11033083160317880089010330831636
:100D5E00031385008601870188018901831203131D
:100D6E00850186018701880189010800F600760356
:100D7E00031DC22EC32ECF2E74087F3EF5007508BC
:100D8E00F70077080A128A1188260A128A11E02EB5
:100D9E0002307606031DD42ED52EE02E7408BF3EEB
:100DAE00F5007508F70077080A128A1188260A12CC
:100DBE008A110800F500F301F401F82E7308750787
:100DCE0084000A128A1103200A128A110A128A1149
:100DDE0072260A128A110130F3070318F40A003042
:100DEE00F4077308750784000A128A1103200A1289
:100DFE008A11003A031D042F052FE52E08000A1252
:100E0E008A11A2260A128A110A128A1149270A1277
:100E1E008A110A128A1165260A128A110230F80006
:100E2E007808F40001300A128A11BD260A128A11BE
:100E3E0001300A128A11E1260A128A110830F800CE
:100E4E007808F40001300A128A11BD260A128A119E
:100E5E0005300A128A11E1260A128A110D30F800A5
:100E6E007808F40001300A128A11BD260A128A117E
:100E7E0009300A128A11E1260A128A11102F0A125B
:100E8E008A11002800300A128A115F260A128A116E
:100E9E003430F500F130F400F40B532FF50B532FD3
:100EAE00582F30300A128A1188260A128A110D30F4
:100EBE00F500FB30F400F40B622FF50B622F672F59
:100ECE0030300A128A1188260A128A111D30F50056
:100EDE009130F400F40B712FF50B712F30300A1294
:100EEE008A1188260A128A1138300A128A11882627
:100EFE000A128A110C300A128A1188260A128A11D5
:100F0E0006300A128A1188260A128A110800F20087
:100F1E00C62F831603130F138F120F12E82F83168B
:100F2E0003130F138F120F16E82F831603130F13CD
:100F3E008F160F12E82F831603130F138F160F162B
:100F4E00E82F831603130F178F120F12E82F831635
:100F5E0003130F178F120F16E82F831603130F1795
:100F6E008F160F12E82F831603130F178F160F16F7
:100F7E00E82F831603130F178F160F12E82F720820
:100F8E00F000F1017108003A0319CE2FC02F70083E
:100F9E00003A0319902F013A0319962F033A0319B9
:100FAE009C2F013A0319A22F073A0319A82F013AD1
:100FBE000319AE2F033A0319B42F013A0319BA2FAE
:100FCE00C02F0F140800F901FA01FB01FC01831276
:100FDE000313A001A101A201A301A401A501A60171
:100FEE00A701A801A901AA01AB0183010A128A1166
:020FFE00062FBC
:04400E00D223FF3F7B
:00000001FF
