:020000040000FA
:100000000A128A11F32F00308A000408840A82073A
:100010000034013400340A34003464340034E834E9
:10002000033410342734533431343A3420342034F8
:100030002034533432343A3420342034533433347B
:100040003A34003425342E34333469345634003491
:1004E600F0007008831203138800080083160313B4
:1004F6009A010C309900080064008001840A040601
:10050600031900340406802A8312031398178316EE
:10051600031318129816181318159810831203133C
:10052600181318169A0108000230F8007808F4002B
:1005360001300A128A1172230A128A110B300A122A
:100546008A1196230A128A110800F100F0013A3046
:1005560071020318AF2AB02AB82A30307102031C80
:10056600B52AB62AB82AF001F00A700C0800F30082
:10057600F201731CBF2AC02AC42A7008F100710850
:10058600F2070310F00D0310F30C7308031DCC2AB9
:10059600CD2ABC2A72080800F2008312031309143C
:1005A60072080A128A1173220A128A11831203131D
:1005B60009151A30F100F10BDE2A0000831203132D
:1005C60009110800F30083120313091073080A12B5
:1005D6008A1173220A128A118312031309150B302A
:1005E600F2006230F100F10BF62AF20BF62A000057
:1005F600831203130911080000300A128A11D42548
:100606000A128A110330F4009730F300F30B092B1A
:10061600F40B092B0E2B831203139F14162B1E08A3
:10062600F3007308AF009F18192B1A2B122B080022
:1006360001300A128A11D4250A128A110330F400F5
:100646009730F300F30B252BF40B252B2A2B831263
:1006560003139F14322B1E08F3007308AE009F1875
:10066600352B362B2E2B080006300A128A1104254C
:100676000A128A1103308316031788008901033092
:1006860083160313850086010713871788018901DE
:1006960083120313850186018701880189010800F9
:1006A600831203130C1E582B592B712B2C0803197C
:1006B6005D2B5E2B622B30309900AC01662B3830F7
:1006C6009900AC01AC0A0130F0007008AA070430AA
:1006D6002A06031D6F2B702B712BAA010800F6004A
:1006E6007603031D772B782B842B74087F3EF50049
:1006F6007508F70077080A128A11E5220A128A118C
:10070600952B02307606031D892B8A2B952B7408B0
:10071600BF3EF5007508F70077080A128A11E52230
:100726000A128A110800F500F301F401AD2B7308D3
:10073600750784000A128A1103200A128A110A1206
:100746008A11CF220A128A110130F3070318F40A1C
:100756000030F4077308750784000A128A11032013
:100766000A128A11003A031DB92BBA2B9A2B0800DC
:100776001A3083120313CD004D08C0002F08CE0097
:10078600CF0103104E0DC1004F0DC20030300A12CA
:100796008A1190260A128A111A3083120313CD0089
:1007A6004D08C0002E08CE00CF0103104E0DC1002B
:1007B6004F0DC20038300A128A1190260A128A1189
:1007C6000800780879040319E92BEA2B192CFD0196
:1007D600FD0AF82B01300310F80DF90DFF3E031D3D
:1007E600EE2B0130FC007C08FD07F91FFB2BFC2BD0
:1007F600ED2B79087B02031D022C78087A02031C74
:10080600052C062C0C2C7808FA027908031CFB032D
:10081600FB0201300310F90CF80CFF3E031D0D2CF2
:100826000130FD02031D182C192CFC2B7B08F90046
:100836007A08F8000800F501F6017008710403193A
:10084600252C262C5D2CF701F70A342C01300310D9
:10085600F00DF10DFF3E031D2A2C0130F400740843
:10086600F707F11F372C382C292C01300310F50D12
:10087600F60DFF3E031D392C71087302031D452C2E
:1008860070087202031C482C492C502C7008F20286
:100896007108031CF303F302751401300310F10C05
:1008A600F00CFF3E031D512C0130F702031D5C2C9A
:1008B6005D2C382C7608F1007508F0000800003031
:1008C6000A128A1173220A128A113430F500F130A5
:1008D600F400F40B6C2CF50B6C2C712C30300A12D6
:1008E6008A11E5220A128A110D30F500FB30F40058
:1008F600F40B7B2CF50B7B2C802C30300A128A11E2
:10090600E5220A128A111D30F5009130F400F40B2D
:100916008A2CF50B8A2C30300A128A11E5220A122B
:100926008A1138300A128A11E5220A128A110C300D
:100936000A128A11E5220A128A1101300A128A1154
:10094600E5220A128A1106300A128A11E5220A12D3
:100956008A1108000A128A1137230A128A110A120A
:100966008A1187220A128A110A128A1179220A1218
:100976008A110A128A1162240A128A110A128A112B
:1009860097220A128A110A128A11FF220A128A1162
:10099600033083120313D1009730D000D00BD12C33
:1009A600D10BD12C0A128A111B230A128A110A12A0
:1009B6008A11BB230A128A110A128A1160250A12A9
:1009C6008A110A128A1153230A128A1183120313F7
:1009D600290886002B302806031DF22CF32CF72C51
:1009E6000130D0005008A9072D302806031DFC2C25
:1009F600FD2CFF2C0130A902A801C62C0A128A116F
:100A06000028F2003C2D831603130F138F120F12CA
:100A16005E2D831603130F138F120F165E2D83168A
:100A260003130F138F160F125E2D831603130F1366
:100A36008F160F165E2D831603130F178F120F12C4
:100A46005E2D831603130F178F120F165E2D831656
:100A560003130F178F160F125E2D831603130F172E
:100A66008F160F165E2D831603130F178F160F1290
:100A76005E2D7208F000F1017108003A0319442D49
:100A8600362D7008003A0319062D013A03190C2D6C
:100A9600033A0319122D013A0319182D073A0319BF
:100AA6001E2D013A0319242D033A03192A2D013A62
:100AB6000319302D362D0F140800F401F40A023004
:100AC6000A128A1172230A128A118312031330083A
:100AD6000A128A11CF220A128A112E300A128A119C
:100AE600CF220A128A118312031331080A128A11BD
:100AF600CF220A128A118312031332080A128A11AC
:100B0600CF220A128A118312031333080A128A119A
:100B1600CF220A128A1120300A128A11CF220A1213
:100B26008A110330F9009730F800F80B982DF90B6D
:100B3600982D9D2D0730F8007808F40002300A122F
:100B46008A1172230A128A118312031338080A12B1
:100B56008A11CF220A128A112E300A128A11CF2246
:100B66000A128A118312031339080A128A11CF2234
:100B76000A128A11831203133A080A128A11CF2223
:100B86000A128A11831203133B080A128A11CF2212
:100B96000A128A1120300A128A11CF220A128A11E9
:100BA6000800F2004D2E831203139F121F129F118D
:100BB6001F11872E831203139F121F129F111F15D9
:100BC600872E831203139F121F129F151F11872E44
:100BD600831203139F121F129F151F15872E831250
:100BE60003139F121F169F111F11872E83120313C3
:100BF6009F121F169F111F15872E831203139F1214
:100C06001F169F151F11872E831203139F121F167F
:100C16009F151F15872E831203139F161F129F11F0
:100C26001F11872E831203139F161F129F111F1564
:100C3600872E831203139F161F129F151F11872ECF
:100C4600831203139F161F129F151F15872E8312DB
:100C560003139F161F169F111F11872E831203134E
:100C66009F161F169F111F15872E831203139F169B
:100C76001F169F151F11872E831203139F161F160B
:100C86009F151F15872E831203139F121F129F1184
:100C96001F11872E7208F000F1017108003A03193E
:100CA600552E462E7008003A0319D62D013A03191F
:100CB600DD2D033A0319E42D013A0319EB2D073A0A
:100CC6000319F22D013A0319F92D033A0319002EDF
:100CD600013A0319072E0F3A03190E2E013A03198A
:100CE600152E033A03191C2E013A0319232E073A2F
:100CF60003192A2E013A0319312E033A0319382E05
:100D0600013A03193F2E462E831603139F018312C1
:100D160003139F171F131F14080083120313CA001F
:100D26004130C3004308C600DC2F25304C060319AA
:100D36009D2E9E2EAA2E4C08C3004A088400430806
:100D4600831380000130C3004308CA07DC2FC701A4
:100D5600400884000A128A1103200A128A112E3AC8
:100D6600031DB62EB72EEE2E0130C3004308C00772
:100D7600CB01DD2E831203134B08C3004308F0009A
:100D86000A300A128A11BA220A128A11831203132E
:100D9600C4004408CB00400884000A128A110320CC
:100DA6000A128A11D03EC3004308CB070130C300A4
:100DB6004308C007400884000A128A1103200A1259
:100DC6008A110A128A11A8220A128A110318EC2E15
:100DD600ED2EBD2EEF2ECB01013083120313C0077B
:100DE600FF30400784000A128A1103200A128A1172
:100DF600CC00C300C4014408003A0319032FDC2FBA
:100E06004308003A0319EE2F643A03190E2F0D3AE0
:100E160003190E2FDC2F4608840083130008C80030
:100E2600840A0008C9000230C3004308C607C91F68
:100E36001D2F1E2F272F0330C3004308C704C809E0
:100E4600C909C80A0319C90A4B08031D2B2F2C2FE1
:100E5600362F48084904031D312F322F362F013013
:100E6600C3004308CB07CC01CC0A4C08C300430798
:100E7600013E84000A128A1103200A128A11C40054
:100E86000A128A1103200A128A11C500450849026E
:100E9600031D4F2F440848020318522F532F542F77
:100EA6005E2F0130C3004308CC0705304C06031DF6
:100EB6005D2F5E2F382F4B08C300C401C31BC4032C
:100EC6004408803A803C031D6A2F43084C020318ED
:100ED6006D2F6E2F6F2F892F831203134B08C300BC
:100EE600C401C31BC4034408803AC50080304502D0
:100EF600031D7F2F4C0843020318822F832F892F4F
:100F0600831203134C08C3004308CB008312031358
:100F1600470803390319902F912FD32F2D30C30083
:100F26004A0884004308831380000130C300430845
:100F3600CA07D32F0A30F8000030F9004B08C30067
:100F46004307013E84000A128A1103200A128A11FD
:100F5600F0000A128A1103200A128A11F1004908C8
:100F6600F3004808F2000A128A111E240A128A1196
:100F76007108FB007008FA000A128A11E4230A12AB
:100F86008A117808303E83120313C4004408CC004B
:100F96004C08C3004A088400430883138000982F36
:100FA600FF30C3004308CB074B0A031DDB2FDC2FA2
:100FB6009D2F0130C007FF30400784000A128A11B6
:100FC60003200A128A11C3004308CC004C08031DF3
:100FD600ED2FEE2F982E4A08840083138001080017
:100FE60083132030840040300A128A117F220A12AD
:0A0FF6008A1183010A128A11AD2C42
:04400E00D423FF3F79
:00000001FF
