:020000040000FA
:060000000A128A11F02F24
:1000080064008001840A04060319003404060528E4
:1000180083120313A101F81F122813281A28F709BD
:10002800F809F70A0319F80AA101A10AFA1F1D28FD
:100038001E282728F909FA09F90A0319FA0A0130CA
:10004800FB007B08A106A201A30177087804031925
:100058002E282F286628A001A00A3D280130031069
:10006800F70DF80DFF3E031D33280130FB007B0818
:10007800A007F81F40284128322801300310A20D9C
:10008800A30DFF3E031D422878087A02031D4E285F
:1000980077087902031C5128522859287708F90251
:1000A8007808031CFA03FA02221401300310F80C32
:1000B800F70CFF3E031D5A280130A002031D6528D6
:1000C80066284128210803196A286B287028A20984
:1000D800A309A20A0319A30A2308F8002208F700B3
:1000E800080083160313C500A130A9002908B2002F
:1000F800D92F253048060319822883288F284808D5
:10010800A900450884002908831380000130A9004C
:100118002908C507D92FB901BA01B701B8012008C4
:1001280084000A168A150A200A128A110A168A15E4
:100138007B210A128A11031CA228A328E32883160C
:100148000313B901BA010A30F0000030F100831638
:1001580003133A08F3003908F2000A168A1529220F
:100168000A128A11710883160313BA007008B900BD
:10017800200884000A168A150A200A128A11D03E1D
:10018800A900FF3003180030AA002908B90703188E
:10019800BA0A2A08BA070130A9002908A0072008C6
:1001A80084000A168A150A200A128A110A168A1564
:1001B8007B210A128A110318E228E328A72883164C
:1001C8000313200884000A168A150A200A128A11C5
:1001D8002E3A031DF028F128362938170130A900D6
:1001E8002908A007C601C70125290A30F0000030F8
:1001F800F100831603134708F3004608F2000A16B5
:100208008A1529220A128A11710883160313C70056
:100218007008C600200884000A168A150A200A12E7
:100228008A11D03EA900FF3003180030AA0029081F
:10023800C6070318C70A2A08C7070130A9002908F2
:10024800A007200884000A168A150A200A128A11B3
:100258000A168A157B210A128A11031834293529AE
:10026800F9283C29C601C70138163C2938155829F0
:10027800013083160313A007FF30200784000A16F5
:100288008A150A200A128A11C800A900AA012A0898
:10029800003A03195029D92F2908003A0319EB2FDE
:1002A800663A03193A29D92F00303705A9000730D3
:1002B8003805AA0029082A04031963296429162F76
:1002C800381E672968296C290630C6000030C70027
:1002D8003208840083130008C100840A0008C200A1
:1002E800840A0008C300840A0008C4000430A90076
:1002F8002908B2074408F3004308F2004208F10055
:100308004108F0000030F7000030F6000030F5003A
:100318000030F4000A168A15A4260A128A11031856
:1003280096299729B429831603134408F300430830
:10033800F2004208F1004108F0000A168A157021FF
:100348000A128A11730883160313C4007208C300C3
:100358007108C2007008C1000330B7040030B80447
:1003680083160313BF01C0014408F3004308F200D9
:100378004208F1004108F0000030F7000030F600B4
:100388000030F5000030F4000A168A1501240A121C
:100398008A110318D029D129C12A031083160313FF
:1003A800430D440D823EBF00FF3003180030C000EB
:1003B800FF30BF070318C00AFF30C0070330F00042
:1003C8000030F1004008F3003F08F2000A168A15D1
:1003D80029220A128A11710883160313C0007008B3
:1003E800BF000A30F7000030F8004008FA003F0864
:1003F800F9000A128A110C200A128A117808831649
:100408000313C0007708BF00C01F0B2A0C2A122A4A
:10041800FF30BF070318C00AFF30C0073F03FF3A89
:100428000A128A1540210A128A11831203134108FD
:1004380083160313BE0083120313400883160313A5
:10044800BD00831203133F0883160313BC008312F5
:1004580003133E0883160313BB00440883120313D7
:10046800A70083160313430883120313A6008316F9
:100478000313420883120313A500831603134108CC
:1004880083120313A400831603133E088312031375
:10049800AB00831603133D0883120313AA008316C7
:1004A80003133C0883120313A900831603133B08A4
:1004B80083120313A8000A128A159F240A128A11AC
:1004C80083120313270883160313BE008312031332
:1004D800260883160313BD00831203132508831609
:1004E8000313BC0083120313240883160313BB00F1
:1004F8003E08F3003D08F2003C08F1003B08F0001C
:100508003F30F7008030F6000030F5000030F4008E
:100518000A168A15A4260A128A110318942A952AFB
:100528009E2AFF3083160313BF070318C00AFF3043
:10053800C007C12A831603133E08F3003D08F200E2
:100548003C08F1003B08F0004130F7002030F6008D
:100558000030F5000030F4000A168A15A4260A12A5
:100568008A11031CB82AB92AC12A01308316031339
:10057800BF070318C00A0030C007831603134708D3
:10058800803AFF0080307F02031DCC2A0D304602DE
:100598000318CF2AD02A172B8316031346080A16E6
:1005A8008A116D230A128A11831203134108D50098
:1005B8004008D4003F08D3003E08D2008316031336
:1005C800440883120313D9008316031343088312C4
:1005D8000313D80083160313420883120313D700AA
:1005E80083160313410883120313D6000A168A11CF
:1005F80078250A128A1183120313550883160313E8
:10060800C40083120313540883160313C300831210
:100618000313530883160313C200831203135208EB
:1006280083160313C100831603134008803AFF00A2
:1006380080307F02031D222B0A303F020318252B2E
:10064800262B772B831603134408F3004308F20084
:100658004208F1004108F0000030F7000030F600D1
:100668000030F5000030F4000A168A1501240A1239
:100678008A110318402B412BE92B831603134408D6
:1006880083120313D400831603134308831203133E
:10069800D30083160313420883120313D200831670
:1006A8000313410883120313D1000A128A15062086
:1006B8000A128A1183120313540853045204510472
:1006C800031D672B682BE92B831603134008803A18
:1006D800FF0080307F02031D732B02303F02031C92
:1006E800762B772BE92B831603133E08F3003D087E
:1006F800F2003C08F1003B08F0004030F700893078
:10070800F6007030F5005F30F4000A168A15A4264A
:100718000A128A110318912B922B9B2BF730831600
:100728000313BF070318C00AFF30C007A32BF83014
:1007380083160313BF070318C00AFF30C0073F081A
:100748000A128A1540210A128A11831203134108DA
:1007580083160313BE008312031340088316031382
:10076800BD00831203133F0883160313BC008312D2
:1007780003133E0883160313BB004408F300430821
:10078800F2004208F1004108F0003E08F7003D0879
:10079800F6003C08F5003B08F4000A128A1582208E
:1007A8000A128A11730883160313B6007208B5007B
:1007B8007108B4007008B3000030C4000030C300F2
:1007C8000030C2000030C1006D2C831603134408AA
:1007D80083120313D40083160313430883120313ED
:1007E800D30083160313420883120313D20083161F
:1007F8000313410883120313D1000A128A15062035
:100808000A128A1183120313540883160313B600BD
:1008180083120313530883160313B50083120313BB
:10082800520883160313B400831203135108831666
:100838000313B3003608F3003508F2003408F1005A
:100848003308F00000300A168A1546270A128A1162
:10085800730883120313E9007208E8007108E700BF
:100868007008E60083160313440883120313ED008F
:1008780083160313430883120313EC008316031330
:10088800420883120313EB008316031341088312F3
:100898000313EA000A168A15E1210A128A11831243
:1008A8000313690883160313C4008312031368082B
:1008B80083160313C30083120313670883160313F5
:1008C800C20083120313660883160313C100BF0115
:1008D800C001C801C80A4808A90001300310A90DC1
:1008E800FF3E031D722C0310290D693E84000A1671
:1008F8008A150A200A128A11AA000A168A150A20DD
:100908000A128A11AB000A168A150A200A128A11DD
:10091800AC000A168A150A200A128A11AD002D08A1
:100928003602031DA12C2C083502031DA12C2B080F
:100938003402031DA12C2A0833020318A42CA52C69
:10094800A62CB02C0130A9002908C8070A3048068F
:10095800031DAF2CB02C6F2C48084607A900470888
:100968000318470AAA003F082907AB0040080318E4
:10097800400A2A07AC002B08B9022C08031CBA034A
:10098800BA02460847040319CA2CCB2CD12CFF30D5
:10099800B9070318BA0AFF30BA0703303705A900A8
:1009A80000303805AA0029082A040319DC2CDD2C9C
:1009B800F22CFF30B9070318BA0AFF30BA07F22C35
:1009C800203083160313A9004508840029088313DF
:1009D80080000130A9002908C507DD2C3A08803AB3
:1009E800FF0080307F02031DFB2C01303902031801
:1009F800FE2CFF2CE42C0330831603133705A900C3
:100A080000303805AA0029082A0403190C2D0D2DD9
:100A18007F2D2D30A9004508840029088313800004
:100A28000130A9002908C5077F2D4808A900013011
:100A38000310A90DFF3E031D1C2D0310290D693E4F
:100A480084000A168A150A200A128A11F0000A166A
:100A58008A150A200A128A11F1000A168A150A2034
:100A68000A128A11F2000A168A150A200A128A1135
:100A7800F3003608F7003508F6003408F5003308A7
:100A8800F4000A168A1558250A128A117308831663
:100A98000313BE007208BD007108BC007008BB00DB
:100AA8000030F3000030F2000030F1000A30F000AE
:100AB8003E08F7003D08F6003C08F5003B08F40046
:100AC8000A168A154F240A128A117308831603130B
:100AD800BE007208BD007108BC007008BB003B086E
:100AE800303EA9004508840029088313800001309E
:100AF800A9002908C5070130C802480A031D852D29
:100B0800862D192D9A2D303083160313A900450818
:100B180084002908831380000130A9002908C5072B
:100B2800FF30BF070318C00AFF30C0074008803AEB
:100B3800FF0080307F02031DA32D01303F02031800
:100B4800A62DA72D872D831603134708803AFF008B
:100B580080307F02031DB22D09304602031CB52DDB
:100B6800B62DBD2D083083160313A9002908C80027
:100B7800C32D831603134608A9002908C80048088E
:100B8800A900AA012908C6022A08031CC703C7022C
:100B980048080319D02DD12DDC2D2E30A900450889
:100BA80084002908831380000130A9002908C5079B
:100BB80048080A128A1540210A128A11831203135F
:100BC800410883160313B1008312031340088316E8
:100BD8000313B000831203133F0883160313AF00F7
:100BE800831203133E0883160313AE0031088312E1
:100BF8000313AB0083160313300883120313AA00F0
:100C0800831603132F0883120313A90083160313F3
:100C18002E0883120313A8008316031344088312B3
:100C28000313A70083160313430883120313A600B4
:100C380083160313420883120313A50083160313B4
:100C4800410883120313A4000A128A159F240A126A
:100C58008A11831203132708D4002608D300250815
:100C6800D2002408D1000A128A1506200A128A1115
:100C780083120313540883160313B6008312031355
:100C8800530883160313B5008312031352088316FF
:100C98000313B40083120313510883160313B3001C
:100CA800F62E4808A90001300310A90DFF3E031DC8
:100CB800582E0310290D693E84000A168A150A2049
:100CC8000A128A11F0000A168A150A200A128A11D5
:100CD800F1000A168A150A200A128A11F2000A1669
:100CE8008A150A200A128A11F3003608F700350817
:100CF800F6003408F5003308F4000A168A1558255A
:100D08000A128A11730883160313BE007208BD0005
:100D18007108BC007008BB000030F3000030F2001E
:100D28000030F1000A30F0003E08F7003D08F600F8
:100D38003C08F5003B08F4000A168A154F240A12ED
:100D48008A11730883160313BE007208BD00710868
:100D5800BC007008BB003B08303EA9004508840071
:100D68002908831380000130A9002908C50748080D
:100D7800A90001300310A90DFF3E031DBE2E03106C
:100D8800290D693E84000A168A150A200A128A115A
:100D9800F0000A168A150A200A128A11F1000A16AA
:100DA8008A150A200A128A11F2000A168A150A20E0
:100DB8000A128A11F3003608F7003508F6003408DD
:100DC800F5003308F4000A168A154F240A128A110E
:100DD800730883160313B6007208B5007108B400CF
:100DE8007008B3000130C802480A031DFC2EFD2E0E
:100DF800552E0F2F3030A900450884002908831389
:100E080080000130A9002908C507FF30C60703186C
:100E1800C70AFF30C70746084704031D142F152FBC
:100E2800FE2ED92F46084704031D1B2F1C2F2A2FDF
:100E38003608350434043304031D232F242F2A2FA6
:100E48000130C6070318C70A0030C7074708803AA9
:100E5800803C031D312F460848020318342F352FD4
:100E68003C2F831603134608A9002908C800542FED
:100E7800831603134708803AA90080302902031D0E
:100E8800472F4808460203184A2F4B2F542F831622
:100E980003134808A900AA012908C6002A08C700A0
:100EA8008316031339083A0403195B2F5C2F6E2F3E
:100EB80003303705A90000303805AA0029082A049C
:100EC8000319672F682F6E2FFF30B9070318BA0A66
:100ED800FF30BA07381F712F722F8D2F4708803ABD
:100EE800A9003A08803A2902031D7C2F39084602D6
:100EF80003187F2F802F892F831603134608B90202
:100F08004708031CBA03BA028D2F83160313B901CD
:100F1800BA013A08803A803C031D942F39084802E8
:100F28000318972F982FA42F831603134808A90096
:100F3800AA012908B9022A08031CBA03BA02A82F71
:100F480083160313B901BA0139083A040319AD2FFE
:100F5800AE2FC52F2030A900450884002908831327
:100F680080000130A9002908C507FF30B907031818
:100F7800BA0AFF30BA0739083A04031DC42FC52F2F
:100F8800AE2F03303705A90000303805AA0029081C
:100F98002A040319D02FD12FD92F2D30A9004508A5
:100FA80084002908831380008A280130A007FF30B5
:100FB800200784000A168A150A200A128A11A90035
:100FC8002908C8004808031DEA2FEB2F7D2845088B
:100FD800840083138001080083120313EF01831335
:100FE800CB308400EB300A128A1104200A128A11CD
:100FF80083010A168A156F2BF000700883120313F9
:1010080088000800031083120313530D540DD500F4
:101018005508DB005B08031D122813281C28003024
:10102800D4000030D3000030D2000030D100812835
:101038005108D5005208D6005308D7005408D800E4
:101048001F300310D80CD70CD60CD50CFF3E031D4F
:1010580025285508D9005908DA00D317FF30D105DB
:10106800FF30D205FF30D3050030D4059630DB02BF
:10107800DB1F3F2840285A285B08803A973E031810
:10108800462847284828132801300310D40CD30CCD
:10109800D20CD10CFF3E031D49280130D50055085C
:1010A800DB07031D582859284828712820305B027F
:1010B800031C5F2860286C2813280130D500031012
:1010C800D10DD20DD30DD40DD50B63280130DB0221
:1010D8005B08031D7028712861285A0803197528B0
:1010E80076288128D109D209D309D409D10A03194C
:1010F800D20A0319D30A0319D40A08000310720D7F
:10110800730DF800780883120313A5002508031D42
:101118008E288F2898280030F3000030F200003025
:10112800F1000030F0003F290310760D770DF8002C
:101138007808A4002408031DA228A328A4288F281F
:10114800F217FF30F005FF30F105FF30F2050030EF
:10115800F305F617FF30F405FF30F505FF30F60507
:101168000030F7050030A3000030A2000030A100D5
:101178000030A0007F30A502A0302407F8007808CE
:10118800A5022030F8007808A4000130F800031008
:10119800A00DA10DA20DA30DF80BCB2877087302A3
:1011A800031DE02876087202031DE0287508710205
:1011B800031DE02874087002031CE328E428F328C0
:1011C8007408F0027508031C750FF1027608031CF9
:1011D800760FF2027708031C770FF3022014013010
:1011E800F8000310F00DF10DF20DF30DF80BF528D2
:1011F8000130A402031D01290229C928A51F0529B8
:10120800062920292508803A9F3E03180C290D2914
:101218000E298F2801300310A30CA20CA10CA00CDE
:10122800FF3E031D0F290130F8007808A507031DAC
:101238001E291F290E29372920302502031C25299C
:10124800262932298F280130F8000310A00DA10D9E
:10125800A20DA30DF80B29290130A5022508031DAD
:101268003629372927292308F3002208F200210804
:10127800F1002008F000080083120313D000D01FEB
:1012880046294729F42AD009D00A5008803A123E44
:10129800031C4F295029382A0A30F7000030F8007B
:1012A8005008F200F301F21BF3036430F000003041
:1012B800F1000A168A15A3240A128A157108FA0081
:1012C8007008F9000A128A110C200A128A15770888
:1012D80083120313C20001300310C20DFF3E031D29
:1012E80070290310420D593E84000A168A150A20F7
:1012F8000A128A15C3000A168A150A200A128A15C4
:10130800C4000A168A150A200A128A15C5000A1688
:101318008A150A200A128A15C6004608A700450839
:10132800A6004408A5004308A4006430F700003074
:10133800F8005008F900FA01F91BFA030A128A1199
:101348000C200A128A15770883120313C70001308C
:101358000310C70DFF3E031DAC290310470D7D3E4A
:1013680084000A168A150A200A128A15C8000A1665
:101378008A150A200A128A15C9000A168A150A202F
:101388000A128A15CA000A168A150A200A128A152C
:10139800CB004B08AB004A08AA004908A900480836
:1013A800A8000A128A159F240A128A1583120313A9
:1013B8002708CF002608CE002508CD002408CC0039
:1013C8000A30F0000030F1005008F200F301F21B7F
:1013D800F3030A168A15A3240A128A1570088312C1
:1013E8000313C20001300310C20DFF3E031DF7298D
:1013F8000310420D353E84000A168A150A200A1287
:101408008A15C3000A168A150A200A128A15C4000A
:101418000A168A150A200A128A15C5000A168A159C
:101428000A200A128A15C6004608A7004508A60021
:101438004408A5004308A4004F08AB004E08AA00C2
:101448004D08A9004C08A8000A128A159F240A1200
:101458008A15831203132708C1002608C00025082F
:10146800BF002408BE009E2C5008803A753E031C1D
:101478003E2A3F2AC72A0A30F0000030F1005008FF
:10148800F200F301F21BF3030A168A15A3240A12C9
:101498008A15700883120313C20001300310C20DAD
:1014A800FF3E031D522A0310420D353E84000A16E2
:1014B8008A150A200A128A15C3000A168A150A20F4
:1014C8000A128A15C4000A168A150A200A128A15F1
:1014D800C5000A168A150A200A128A15C600460887
:1014E800A7004508A6004408A5004308A4000A3040
:1014F800F7000030F8005008F900FA01F91BFA0368
:101508000A128A110C200A128A157708831203130B
:10151800C70001300310C70DFF3E031D8E2A0310BC
:10152800470D593E84000A168A150A200A128A15A0
:10153800C8000A168A150A200A128A15C9000A164E
:101548008A150A200A128A15CA000A168A150A205C
:101558000A128A15CB004B08AB004A08AA004908B2
:10156800A9004808A8000A128A159F240A128A1599
:10157800831203132708C1002608C0002508BF00EE
:101588002408BE009E2C5008C20001300310C20D72
:10159800FF3E031DCA2A0310420D353E84000A1679
:1015A8008A150A200A128A15C3000A168A150A2003
:1015B8000A128A15C4000A168A150A200A128A1500
:1015C800C5000A168A150A200A128A15C600460896
:1015D800C1004508C0004408BF004308BE009E2C57
:1015E8005008803A123E031CFA2AFB2AE32B0A30E1
:1015F800F7000030F8005008F200F301F21BF30383
:101608006430F0000030F1000A168A15A3240A128B
:101618008A157108FA007008F9000A128A110C205C
:101628000A128A15770883120313C20001300310C7
:10163800C20DFF3E031D1B2B0310420D253E8400E7
:101648000A168A150A200A128A15C3000A168A156C
:101658000A200A128A15C4000A168A150A200A12D4
:101668008A15C5000A168A150A200A128A15C600A4
:101678004608A7004508A6004408A5004308A4009A
:101688006430F7000030F8005008F900FA01F91B3F
:10169800FA030A128A110C200A128A157708831293
:1016A8000313C70001300310C70DFF3E031D572B5E
:1016B8000310470D493E84000A168A150A200A12AB
:1016C8008A15C8000A168A150A200A128A15C9003E
:1016D8000A168A150A200A128A15CA000A168A15D5
:1016E8000A200A128A15CB004B08AB004A08AA0048
:1016F8004908A9004808A8000A128A159F240A1256
:101708008A15831203132708CF002608CE00250860
:10171800CD002408CC000A30F0000030F100500859
:10172800F200F301F21BF3030A168A15A3240A1226
:101738008A15700883120313C20001300310C20D0A
:10174800FF3E031DA22B0310420D013E84000A1622
:101758008A150A200A128A15C3000A168A150A2051
:101768000A128A15C4000A168A150A200A128A154E
:10177800C5000A168A150A200A128A15C6004608E4
:10178800A7004508A6004408A5004308A4004F0880
:10179800AB004E08AA004D08A9004C08A8000A1280
:1017A8008A159F240A128A15831203132708C10079
:1017B8002608C0002508BF002408BE009E2C50083B
:1017C800803A753E031CE92BEA2B722C0A30F00094
:1017D8000030F1005008F200F301F21BF3030A167F
:1017E8008A15A3240A128A15700883120313C200EB
:1017F80001300310C20DFF3E031DFD2B0310420DE7
:10180800013E84000A168A150A200A128A15C300A6
:101818000A168A150A200A128A15C4000A168A1599
:101828000A200A128A15C5000A168A150A200A1201
:101838008A15C6004608A7004508A6004408A50062
:101848004308A4000A30F7000030F8005008F900F7
:10185800FA01F91BFA030A128A110C200A128A15D6
:10186800770883120313C70001300310C70DFF3E2A
:10187800031D392C0310470D253E84000A168A15CE
:101888000A200A128A15C8000A168A150A200A129E
:101898008A15C9000A168A150A200A128A15CA006A
:1018A8000A168A150A200A128A15CB004B08AB00C3
:1018B8004A08AA004908A9004808A8000A128A1577
:1018C8009F240A128A15831203132708C1002608C9
:1018D800C0002508BF002408BE009E2C5008C20086
:1018E80001300310C20DFF3E031D752C0310420D7D
:1018F800013E84000A168A150A200A128A15C300B6
:101908000A168A150A200A128A15C4000A168A15A8
:101918000A200A128A15C5000A168A150A200A1210
:101928008A15C6004608C1004508C0004408BF0023
:101938004308BE0008008312031327088039AC004F
:101948002C08B1002708AC002C07AD002D08B70003
:10195800A61FAF2CB02CB12C371437080319B52C9F
:10196800B62CC52C370A031DBA2CBB2CC32C00304F
:10197800A7000030A6000030A5000030A400A6177C
:10198800CD2C0030A7000030A6000030A5000030A4
:10199800A4002B088039AC002C08B1062B08AC0039
:1019A8002C07AD002D08B600AA1FDB2CDC2CDD2C83
:1019B800361436080319E12CE22CF12C360A031DE3
:1019C800E62CE72CEF2C0030AB000030AA000030EA
:1019D800A9000030A800AA17F92C0030AB0000308D
:1019E800AA000030A9000030A80036080319FD2C11
:1019F800FE2C032D3708031D022D032D0C2D00305E
:101A0800A7000030A6000030A5000030A400FF2F7A
:101A18002408AC002C08F0002A080A168A154E2261
:101A28000A128A15710883120313BD007008BC00DE
:101A38003C08AC00AD01AE01AF012F08B5002E087F
:101A4800B4002D08B3002C08B2003D08AC00AD016D
:101A5800AE01AF012F08BB002E08BA002D08B9004F
:101A68002C08B8002508AC002C08F00029080A1634
:101A78008A154E220A128A15710883120313BD00B3
:101A88007008BC003C08AC00AD01AE01AF012C08E9
:101A9800B2072D0803110318013E0319542DB3078B
:101AA8002E0803110318013E03195B2DB4072F08F4
:101AB80003110318013E0319622DB5073D08AC0058
:101AC800AD01AE01AF012C08B8072D0803110318AA
:101AD800013E0319702DB9072E0803110318013EA2
:101AE8000319772DBA072F0803110318013E0319AC
:101AF8007E2DBB072608AC002C08F00028080A1623
:101B08008A154E220A128A15710883120313BD0022
:101B18007008BC003C08AC00AD01AE01AF012C0858
:101B2800B2072D0803110318013E03199C2DB307B2
:101B38002E0803110318013E0319A32DB4072F081B
:101B480003110318013E0319AA2DB5073D08AC007F
:101B5800AD01AE01AF012C08B8072D080311031819
:101B6800013E0319B82DB9072E0803110318013EC9
:101B78000319BF2DBA072F0803110318013E0319D3
:101B8800C62DBB070830AC000310B20DB30DB40D61
:101B9800B50DAC0BC82D2508AC002C08F0002808A2
:101BA8000A168A154E220A128A157108831203131F
:101BB800BD007008BC003C08AC003D08AD00AE019B
:101BC800AF012C08B2072D0803110318013E0319B1
:101BD800EE2DB3072E0803110318013E0319F52D46
:101BE800B4072F0803110318013E0319FC2DB5078C
:101BF8002408AC002C08F00029080A168A154E2281
:101C08000A128A15710883120313BD007008BC00FC
:101C18003C08AC003D08AD00AE01AF012C08B2078E
:101C28002D0803110318013E03191B2EB3072E08B4
:101C380003110318013E0319222EB4072F080311BC
:101C48000318013E0319292EB5070830AC0003100C
:101C5800B20DB30DB40DB50DAC0B2B2E2408AC0092
:101C68002C08F00028080A168A154E220A128A152E
:101C7800710883120313BD007008BC003C08AC0057
:101C88003D08AD00AE01AF012C08B2072D080311C5
:101C98000318013E0319512EB3072E080311031828
:101CA800013E0319582EB4072F0803110318013EEB
:101CB80003195F2EB5072508AC002C08F0002A0888
:101CC8000A168A154E220A128A15710883120313FE
:101CD800BD007008BC003C08AC003D08AD00AE017A
:101CE800AF012C08B8072D0803110318013E03198A
:101CF8007E2EB9072E0803110318013E0319852EFD
:101D0800BA072F0803110318013E03198C2EBB07CD
:101D18002608AC002C08F00029080A168A154E225D
:101D28000A128A15710883120313BD007008BC00DB
:101D38003C08AC003D08AD00AE01AF012C08B80767
:101D48002D0803110318013E0319AB2EB9072E08FD
:101D580003110318013E0319B22EBA072F08031105
:101D68000318013E0319B92EBB072608AC002C083E
:101D7800F0002A080A168A154E220A128A157108D6
:101D880083120313BD007008BC003C08AC003D087A
:101D9800AD00AE01AF0108300310AC0DAD0DAE0DB6
:101DA800AF0DFF3E031DD02E2C08B8072D080311D8
:101DB8000318013E0319E12EB9072E080311031871
:101DC800013E0319E82EBA072F0803110318013E34
:101DD8000319EF2EBB073208AC003308AD003408F6
:101DE800AE003508AF0018300310AF0CAE0CAD0CC8
:101DF800AC0CFF3E031DF82E2C08B8072D08031164
:101E08000318013E0319092FB9072E0803110318F7
:101E1800013E0319102FBA072F0803110318013EBA
:101E28000319172FBB070830AC000310B20DB30D10
:101E3800B40DB50DAC0B192F37083607AC00AD0142
:101E4800AD0D2C08823EBC002D080318013EFF3E54
:101E5800BD004B2F0130AC000310B80DB90DBA0D01
:101E6800BB0DAC0B302FB51F3A2F3B2F3C2F38142E
:101E78000130AC000310B20DB30DB40DB50DAC0BB1
:101E88003E2FFF30BC070318BD0AFF30BD07BA1F3D
:101E98004E2F4F2F2E2FB601B51F532F542F702FB3
:101EA800FF303205AC00FF303305AD00FF3034059C
:101EB800AE007F303505AF002F082E042D042C040A
:101EC8000319672F682F6B2FB601B60A702F381CBD
:101ED8006E2F6F2F702F682F36080319742F752FE8
:101EE800A62F0130B807003003180130B9070030B9
:101EF80003180130BA07003003180130BB073B1C38
:101F0800862F872FA62F3808AC003908AD003A086D
:101F1800AE003B08AF000130B0002F0DAF0CAE0C87
:101F2800AD0CAC0CB00B912F2F08BB002E08BA00DB
:101F38002D08B9002C08B8000130BC070318BD0AE9
:101F48000030BD073D08803AFF0080307F02031D46
:101F5800AF2FFF303C02031CB22FB32FBE2F7F30B0
:101F680083120313BB008030BA000030B900003080
:101F7800B800F32F831203133D08803AFF00803026
:101F88007F02031DC92F01303C020318CC2FCD2F2F
:101F9800D92F003083120313BB000030BA00003081
:101FA800B9000030B800B101F32F831203133C08C5
:101FB800AC002C08B700FF30B805FF30B9057F30FA
:101FC800BA050030BB05371CEA2FEB2FEC2FBA17E8
:101FD8003708AC0003102C0CAD002D08BB003108ED
:101FE800AC002C08BB043B08A7003A08A600390837
:081FF800A5003808A400080050
:10200200F20083120313091472080A128A150020BF
:102012000A168A118312031309151A30F100F10B03
:10202200102800008312031309110800F2009028FF
:10203200831203139F121F129F111F11CA288312AA
:1020420003139F121F129F111F15CA288312031315
:102052009F121F129F151F11CA28831203139F126A
:102062001F129F151F15CA28831203139F121F16D2
:102072009F111F11CA28831203139F121F169F114B
:102082001F15CA28831203139F121F169F151F11B3
:10209200CA28831203139F121F169F151F15CA28E1
:1020A200831203139F161F129F111F11CA28831236
:1020B20003139F161F129F111F15CA2883120313A1
:1020C2009F161F129F151F11CA28831203139F16F2
:1020D2001F129F151F15CA28831203139F161F165E
:1020E2009F111F11CA28831203139F161F169F11D7
:1020F2001F15CA28831203139F161F169F151F113F
:10210200CA28831203139F161F169F151F15CA286C
:10211200831203139F121F129F111F11CA287208E4
:10212200F000F1017108003A031998288928700813
:10213200003A03191928013A03192028033A03190E
:102142002728013A03192E28073A03193528013A9C
:1021520003193C28033A03194328013A03194A2870
:102162000F3A03195128013A03195828033A03195F
:102172005F28013A03196628073A03196D28013AC4
:1021820003197428033A03197B28013A0319822898
:102192008928831603139F01831203139F171F13AA
:1021A2001F1408007008F8007108F9007208FA009C
:1021B2000310790D7A0DFB007B0883120313A5002F
:1021C2002508031DE528E628EF280030F30000303B
:1021D200F2000030F1000030F0008F297408F8009E
:1021E2007508F9007608FA000310790D7A0DFB00E4
:1021F2007B08A4002408031DFF2800290129E628E2
:10220200F117FF30F005FF30F1050030F205F51748
:10221200FF30F405FF30F5050030F6050030A3006D
:102222000030A2000030A1000030A0007F30A502E3
:1022320098302407F8007808A5021830F8007808CA
:10224200A4000130F8000310A00DA10DA20DA30DF2
:10225200F80B242976087202031D352975087102CC
:10226200031D352974087002031C382939294429B1
:102272007408F0027508031C750FF1027608031C3E
:10228200760AF202201401300310F00DF10DF20D66
:10229200FF3E031D45290130A402031D5129522985
:1022A2002229A51F5529562970292508803A973ECB
:1022B20003185C295D295E29E62801300310A30C6E
:1022C200A20CA10CA00CFF3E031D5F290130F800F7
:1022D2007808A507031D6E296F295E298729183002
:1022E2002502031C752976298229E6280130F80087
:1022F2000310A00DA10DA20DA30DF80B7929013039
:10230200A5022508031D8629872977292308F300BA
:102312002208F2002108F1002008F00008008312D0
:10232200031345088039C6004608CF004508C60099
:102332004607C7004708D600C41FA029A129A22921
:10234200561456080319A629A729B729560A031DA8
:10235200AB29AC29B4290030C5000030C4000030DC
:10236200C3000030C200C417C501BF290030C50038
:102372000030C4000030C3000030C2004108803980
:10238200C6004608CF064108C6004607C7004708F0
:10239200D700C01FCD29CE29CF29571457080319BA
:1023A200D329D429E429570A031DD829D929E12997
:1023B2000030C1000030C0000030BF000030BE005D
:1023C200C017C101EC290030C1000030C00000304C
:1023D200BF000030BE00410840043F043E04031D1C
:1023E200F329F4290D2A0030C5000030C400003062
:1023F200C3000030C2008030C4047F30C5044F08DF
:10240200C6004608C5044508C1004408C000430888
:10241200BF004208BE006C2B5608031D112A122A67
:102422001B2A0030C1000030C0000030BF00003065
:10243200BE006C2B5608C600C7014708C9005708E2
:102442004602C800031CC90348087F3ED000490861
:102452000318013E003ED1004508CE004408CD00DD
:102462004308CC004208CB000030C5000030C40055
:102472000030C3000030C2000030D5000030D4006C
:102482000030D3000030D200D701912A5708031937
:102492004B2A4C2A6C2A0130C6000310CB0DCC0DFE
:1024A200CD0DCE0DC60B4E2A0130C6000310C20D53
:1024B200C30DC40DC50DC60B572AD51F612A622A4A
:1024C200632A42140130C6000310D20DD30DD40D7D
:1024D200D50DC60B652A41084E02031D7A2A400813
:1024E2004D02031D7A2A3F084C02031D7A2A3E0838
:1024F2004B02031C7D2A7E2A8D2A55173E08CB02E9
:102502003F08031C3F0FCC024008031C400FCD02C2
:102512004108031C410FCE020130C6004608D7070E
:102522001A305702031C962A972A472A4E084D044E
:102532004C044B0403199E2A9F2ABE2A5214BE2A17
:102542000130C6000310C20DC30DC40DC50DC60B6C
:10255200A32AD51FAD2AAE2AAF2A42140130C600E3
:102562000310D20DD30DD40DD50DC60BB12AFF30F9
:10257200D0070318D10AFF30D107C41FC12AC22ACB
:10258200A12AD701D51FC62AC72AE32AFF3052053E
:10259200C600FF305305C700FF305405C8007F3026
:1025A2005505C90049084804470446040319DA2AB4
:1025B200DB2ADE2AD701D70AE32A421CE12AE22AD1
:1025C200E32ADB2A57080319E72AE82A192B0130E4
:1025D200C207003003180130C3070030031801306E
:1025E200C407003003180130C507451CF92AFA2A2E
:1025F200192B4208C6004308C7004408C800450812
:10260200C9000130CA00490DC90CC80CC70CC60C60
:10261200CA0B042B4908C5004808C4004708C30078
:102622004608C2000130D0070318D10A0030D10792
:102632005108803AFF0080307F02031D222BFF30B9
:102642005002031C252B262B342BFF30831203133D
:10265200D0000030D1000030C5000030C40000308E
:10266200C3000030C200831203135108803AFF00F6
:1026720080307F02031D3F2B013050020318422B92
:10268200432B502B83120313D001D1010030C5001C
:102692000030C4000030C3000030C200CF018312FA
:1026A20003135008C6004608D600561C592B5A2B55
:1026B2005C2BC417602B7F30C6004608C405560841
:1026C200C6000310460CC7004708C5004F08C600E5
:1026D2004608C504042A080083120313D1006E3091
:1026E2005102031C752B762B832C3F30A700003040
:1026F200A6000030A5000030A4006430F6000030CF
:10270200F7005108C200C3014208F8004308F9006B
:102712000A168A152B230A168A11760883120313C6
:10272200C40001300310C40DFF3E031D932B0310A0
:10273200440D7D3E84000A168A150A200A168A1163
:10274200C5000A168A150A200A168A11C6000A1638
:102752008A150A200A168A11C7000A168A150A2043
:102762000A168A11C8004808AB004708AA004608A2
:10277200A9004508A8000A128A159F240A168A1180
:10278200831203132708D0002608CF002508CE00A5
:102792002408CD000A30F6000030F7005108C200CC
:1027A200C3014208F2004308F3006430F000003035
:1027B200F1000A168A1575220A168A117108F900A3
:1027C2007008F8000A168A152B230A168A11760851
:1027D20083120313C40001300310C40DFF3E031D16
:1027E200ED2B0310440D593E84000A168A150A2067
:1027F2000A168A11C5000A168A150A200A168A11B3
:10280200C6000A168A150A200A168A11C7000A1675
:102812008A150A200A168A11C8004808A700470824
:10282200A6004608A5004508A4005008AB004F08C2
:10283200AA004E08A9004D08A8000A128A159F2472
:102842000A168A11831203132708CC002608CB002C
:102852002508CA002408C9000A30F0000030F1003F
:102862005108C200C3014208F2004308F3000A16ED
:102872008A1575220A168A11700883120313C4007E
:1028820001300310C40DFF3E031D422C0310440D02
:10289200353E84000A168A150A200A168A11C500D6
:1028A2000A168A150A200A168A11C6000A168A15FD
:1028B2000A200A168A11C7000A168A150A200A1661
:1028C2008A11C8004808A7004708A6004608A500C4
:1028D2004508A4004C08AB004B08AA004A08A9000E
:1028E2004908A8000A128A159F240A168A1183121F
:1028F20003132708C1002608C0002508BF002408CA
:10290200BE00772D0B305102031C882C892C342DEC
:102912003F30A7000030A6000030A5000030A40020
:102922000A30F6000030F7005108C200C301420825
:10293200F8004308F9000A168A152B230A168A1191
:10294200760883120313C40001300310C40DFF3E46
:10295200031DA62C0310440D593E84000A168A1545
:102962000A200A168A11C5000A168A150A200A16B2
:102972008A11C6000A168A150A200A168A11C70089
:102982000A168A150A200A168A11C8004808AB00DE
:102992004708AA004608A9004508A8000A128A1595
:1029A2009F240A168A11831203132708D0002608CF
:1029B200CF002508CE002408CD000A30F0000030F8
:1029C200F1005108C200C3014208F2004308F300BB
:1029D2000A168A1575220A168A11700883120313C1
:1029E200C40001300310C40DFF3E031DF32C03107D
:1029F200440D353E84000A168A150A200A168A11E9
:102A0200C5000A168A150A200A168A11C6000A1675
:102A12008A150A200A168A11C7000A168A150A2080
:102A22000A168A11C8004808A7004708A6004608E7
:102A3200A5004508A4005008AB004F08AA004E08A4
:102A4200A9004D08A8000A128A159F240A168A11A5
:102A5200831203132708C1002608C0002508BF00FF
:102A62002408BE00772D3F30A7000030A6000030BA
:102A7200A5000030A4005108C20001300310C20DAD
:102A8200FF3E031D3F2D0310420D353E84000A1602
:102A92008A150A200A168A11C3000A168A150A2004
:102AA2000A168A11C4000A168A150A200A168A1101
:102AB200C5000A168A150A200A168A11C600460897
:102AC200AB004508AA004408A9004308A8000A125E
:102AD2008A159F240A168A11831203132708C1003C
:102AE2002608C0002508BF002408BE000800831283
:102AF200031355088039DA005A08E2005508DA0053
:102B02005A07DB005B08E400D41F882D892D8A2D2B
:102B12006414640803198E2D8F2D9F2D640A031DE2
:102B2200932D942D9C2D0030D5000030D400003020
:102B3200D3000030D200D417D501A72D0030D50024
:102B42000030D4000030D3000030D2005908803960
:102B5200DA005A08E300630862060319B12DB22DA8
:102B6200B32D62175908DA005A07DB005B08E3004D
:102B7200D81FBC2DBD2DBE2D631463080319C22DB1
:102B8200C32DD32D630A031DC72DC82DD02D0030B0
:102B9200D9000030D8000030D7000030D600D81756
:102BA200D901DB2D0030D9000030D8000030D70029
:102BB2000030D600640863020318E02DE12D252EB3
:102BC200621FE42DE52DE92D8030DA005A08E20675
:102BD2006408DA005A08E5006308DA005A08E400DB
:102BE2006508DA005A08E3005208DA005A08E500DC
:102BF2005608DA005A08D2006508DA005A08D600E8
:102C02005308DA005A08E5005708DA005A08D300D8
:102C12006508DA005A08D7005408DA005A08E500B5
:102C22005808DA005A08D4006508DA005A08D800B1
:102C32005508DA005A08E5005908DA005A08D500A2
:102C42006508DA005A08D900E5016308DA00DB01F9
:102C52005B08DD0064085A02DC00031CDD035D082A
:102C6200803AFF0080307F02031D392E1A305C0249
:102C7200031C3C2E3D2E7A2E831203135508540456
:102C820053045204031D462E482E0130492E0030B3
:102C9200DA005A08E5000030D5000030D4000030D8
:102CA200D3000030D2006308DA005A08E400822E12
:102CB200651C5C2E5D2E662E6508DA0003105A0C28
:102CC2000138DB005B08E500682E0310E50C521C9E
:102CD2006B2E6C2E6D2EE5170130DA00550DD50CDA
:102CE200D40CD30CD20CDA0B6F2E0130DA005A0856
:102CF200E4078312031363086402031C812E822EED
:102D0200592E621B852E862ED12E6408031D8A2E13
:102D12008B2E942E0030D5000030D4000030D3002A
:102D22000030D200FF2F5608D207570803110318AC
:102D3200013E03199D2ED307580803110318013EC3
:102D42000319A42ED407590803110318013E0319CD
:102D5200AB2ED507551CAE2EAF2E852F651CB22E7D
:102D6200B32EBC2E6508DA0003105A0C0138DB00C2
:102D72005B08E500BE2E0310E50C521CC12EC22ECC
:102D8200C32EE5170130DA00550DD50CD40CD30C47
:102D9200D20CDA0BC52E0130DA005A08E407852F6F
:102DA2005508803AFF005908803A7F02031DE32E3E
:102DB20058085402031DE32E57085302031DE32E45
:102DC200560852020318E62EE72E3F2FFF30DA0094
:102DD200FF30DB00FF30DC00FF30DD005608DE0094
:102DE2005708DF005808E0005908E1005208DE02E7
:102DF2005308031C530FFE2EFF2EDF025408031C40
:102E0200540F042F052FE0025508031C550F0A2FFB
:102E12000B2FE1025E08DA075F0803185F0F122F1B
:102E2200132FDB0760080318600F182F192FDC0718
:102E320061080318610ADD075D08D5005C08D4004B
:102E42005B08D3005A08D2008030DA005A08E20642
:102E5200E509E50A6508031D2F2F302F4D2F01309C
:102E6200D207003003180130D307003003180130B5
:102E7200D407003003180130D5074D2F5608D2026F
:102E82005708031C570FD3025808031C580FD402CB
:102E92005908031C590FD50255085404530452040F
:102EA200031D542F552F812F6508031D592F5A2FAB
:102EB200812F0030D5000030D4000030D300003024
:102EC200D200FF2F0130DA000310D20DD30DD40D42
:102ED200D50DDA0B652FE51F6F2F702F712F52144E
:102EE200651C742F752F782F0314E50D7A2F0310AC
:102EF200E50D640803197E2F7F2F812F0130E40234
:102F0200D41F842F852F632FE301E51F892F8A2F7A
:102F1200982F65087F3903198F2F902F932FE30184
:102F2200E30A982F521C962F972F982F902F630801
:102F320003199C2F9D2FD12F0130D2070030031887
:102F42000130D307003003180130D40700300318D2
:102F52000130D507551CAE2FAF2FD12F5208DA0002
:102F62005308DB005408DC005508DD000130DE00A8
:102F72005D0DDD0CDC0CDB0CDA0CDE0BB92F5D0811
:102F8200D5005C08D4005B08D3005A08D200640A5A
:102F92000319CC2FCD2FD12F0130DA005A08E407C4
:102FA200640A0319D52FD62FDB2F6408031DDA2FED
:102FB200DB2FE92F0030D5000030D4000030D300E1
:102FC2000030D2006408031DE72FE82FE92FE20149
:102FD200641CEC2FED2FEF2FD417F32F7F30DA0084
:102FE2005A08D4056408DA0003105A0CDB005B08A7
:102FF200D500E21FFD2FFE2FFF2FD5170800FF1B64
:103002000A2883137F1883170008840A0319FF0A0A
:10301200080018308A000408840A82070034003449
:10302200003480343F3400340034203441340034DE
:103032000034C8344234003400347A344434003426
:1030420040341C34463400345034C33447340034E2
:103052002434743449348034963418344B34203454
:10306200BC34BE344C3428346B346E344E34F934B0
:10307200023415345034EC347834AD346034CA340C
:10308200F234493471340034003480343F34CD3466
:10309200CC34CC343D340A34D73423343C346F340A
:1030A200123483343A341734B734D1343834AC342C
:1030B200C53427343734BD34373486343534953407
:1030C200BF34D63433347734CC342B3432345F3497
:1030D200703489343034FF34E634DB342E3408342F
:1030E200E5343C341E3460344234A2340D340134AD
:1030F2000034003400340A340034003400346434C0
:10310200003400340034E834033400340034103422
:10311200273400340034A03486340134003440347F
:1031220042340F34003480349634983400340034FE
:10313200E134F53405340034CA349A343B3425344E
:1031420031342E3432346634203420342534313450
:103152002E34323466340034533431343A34003449
:10316200533432343A340034533433343A3400343E
:1032E00073087204710470040319772978297A2904
:1032F0008030F3060800F100F0013A307102031843
:10330000822983298B2930307102031C882989295D
:103310008B29F001F00A700C0800F30083120313EC
:10332000091073080A128A1500200A168A158312DA
:10333000031309150B30F2006230F100F10B9E29E6
:10334000F20B9E29000083120313091108000630B6
:103350000A168A15FC240A168A15033083160317E9
:1033600088008901033083160313850086018701D5
:103370008801890183120313850186018701880171
:1033800089010800913083120313EE006E08831642
:103390000313A0004E08A4004D08A3004C08A2008F
:1033A0004B08A1005208A8005108A7005008A60029
:1033B0004F08A500DB300A128A1175200A168A15FB
:1033C0000800803083120313E9066D08D5006C08ED
:1033D000D4006B08D3006A08D2006908D9006808D5
:1033E000D8006708D7006608D6000A168A11782523
:1033F0000A168A15831203135508E9005408E800D9
:103400005308E7005208E6000800F6007603031DA3
:103410000A2A0B2A172A74087F3EF5007508F70060
:1034200077080A168A158D210A168A15282A02306D
:103430007606031D1C2A1D2A282A7408BF3EF500A3
:103440007508F70077080A168A158D210A168A155D
:103450000800F401F501701C2E2A2F2A352A720863
:10346000F4070318F50A7308F50701300310F20D8D
:10347000F30DFF3E031D362A01300310F10CF00C52
:10348000FF3E031D3D2A70087104031D482A492A86
:103490002B2A7508F1007408F0000800F800F40108
:1034A000F5017008F200F3017208F6007308F700E6
:1034B000781C5B2A5C2A622A7608F4070318F50A4E
:1034C0007708F50701300310F60DF70DFF3E031DD9
:1034D000632A0310F80C7808031D6F2A702A582AF3
:1034E0007508F1007408F0000800700871040319F1
:1034F0007A2A7B2AAA2AF501F50A892A01300310C3
:10350000F00DF10DFF3E031D7F2A0130F400740819
:10351000F507F11F8C2A8D2A7E2A71087302031D7C
:10352000932A70087202031C962A972A9D2A700813
:10353000F2027108031CF303F30201300310F10CD3
:10354000F00CFF3E031D9E2A0130F502031DA92A3F
:10355000AA2A8D2A7308F1007208F00008000230D0
:10356000FA007A08F40001300A168A1505220A16B4
:103570008A159E30F3008030F4000A168A15E9227D
:103580000A168A150830FA007A08F40001300A1683
:103590008A1505220A168A15A230F3008030F4003D
:1035A0000A168A15E9220A168A150D30FA007A08D9
:1035B000F40001300A168A1505220A168A15A6306B
:1035C000F3008030F4000A168A15E9220A168A15DB
:1035D0000800F801F9010E2B78087307F60074084B
:1035E000F5000318F50AF81FF62AF5037508F70029
:1035F000770883120313FF00760884000A168A15E1
:1036000000200A168A150A168A1101200A168A1540
:103610000130F8070318F90A0030F9077808730732
:10362000F6007408F5000318F50AF81F182BF503C7
:103630007508F700770883120313FF0076088400EB
:103640000A168A1500200A168A15003A031D292B2E
:103650002A2BEC2A0800FB01FC01760877040319E9
:10366000322B332B6A2BFD01FD0A412B0130031055
:10367000F60DF70DFF3E031D372B0130FA007A08D7
:10368000FD07F71F442B452B362B01300310FB0D94
:10369000FC0DFF3E031D462B77087902031D522BBC
:1036A00076087802031C552B562B5D2B7608F80202
:1036B0007708031CF903F9027B1401300310F70C9F
:1036C000F60CFF3E031D5E2B0130FD02031D692B2E
:1036D0006A2B452B7C08F7007B08F60008000A16C9
:1036E0008A15A7210A168A150A168A15B6230A16FC
:1036F0008A150A168A15AF220A168A150A168A151D
:10370000BE250A168A15033083160313CA009730A4
:10371000C900C90B892BCA0B892B0A168A153126B9
:103720000A168A15033083160313CA009730C9009E
:10373000C90B982BCA0B982B0A168A15C2210A1698
:103740008A15F401F40A02300A168A1505220A16AF
:103750008A15DB30F3000030F4000A168A15E922DE
:103760000A168A157E2B0A128A11002800300A12C6
:103770008A1500200A168A153430F500F130F4005D
:10378000F40BC02BF50BC02BC52B30300A168A1555
:103790008D210A168A150D30F500FB30F400F40B6C
:1037A000CF2BF50BCF2BD42B30300A168A158D2159
:1037B0000A168A151D30F5009130F400F40BDE2B4B
:1037C000F50BDE2B30300A168A158D210A168A1564
:1037D00038300A168A158D210A168A150C300A16F9
:1037E0008A158D210A168A1501300A168A158D212F
:1037F0000A168A1506300A168A158D210A168A15A8
:10380000080000307005F80000307105F9008030C4
:103810007205FA007F307305FB007B087A04790497
:103820007804031D142C152C1D2C0030F3000030DF
:10383000F2000030F1000030F00000307405F800B4
:1038400000307505F90080307605FA007F30770585
:10385000FB007B087A0479047804031D302C312C9A
:10386000392C0030F7000030F6000030F500003051
:10387000F40077087306031D472C76087206031DB3
:10388000472C75087106031D472C74087006031930
:103890004A2C4B2C4D2C03104E2C0314080073089B
:1038A0007204710470040319562C572C9A2CF901D8
:1038B000F90A672C0130F8000310F00DF10DF20D3C
:1038C000F30DF80B5C2C0130F8007808F907F31FB2
:1038D0006A2C6B2C5A2C73087702031D792C720802
:1038E0007602031D792C71087502031D792C70086E
:1038F0007402031C7C2C7D2C8B2C7008F402710844
:10390000031C710FF5027208031C720FF602730894
:10391000031C730FF70201300310F30CF20CF10CCF
:10392000F00CFF3E031D8C2C0130F902031D992C75
:103930009A2C6B2C7708F3007608F2007508F100DA
:103940007408F0000800F601F31FA72CA82CAF2C78
:10395000F209F309F20A0319F30AF601F60AF11F54
:10396000B22CB32CB82CF009F109F00A0319F10AB2
:10397000700871040319BD2CBE2CED2CF501F50A5D
:10398000CC2C01300310F00DF10DFF3E031DC22CB5
:103990000130F4007408F507F11FCF2CD02CC12C96
:1039A00071087302031DD62C70087202031CD92CF7
:1039B000DA2CE02C7008F2027108031CF303F30206
:1039C00001300310F10CF00CFF3E031DE12C01301F
:1039D000F502031DEC2CED2CD02C76080319F12CEC
:1039E000F22CF72CF209F309F20A0319F30A73080F
:1039F000F1007208F0000800F200342D8316031362
:103A00000F138F120F12562D831603130F138F12DD
:103A10000F16562D831603130F138F160F12562DE4
:103A2000831603130F138F160F16562D83160313C9
:103A30000F178F120F12562D831603130F178F12A5
:103A40000F16562D831603130F178F160F12562DB0
:103A5000831603130F178F160F16562D8316031395
:103A60000F178F160F12562D7208F000F101710812
:103A7000003A03193C2D2E2D7008003A0319FE2C34
:103A8000013A0319042D033A03190A2D013A0319C7
:103A9000102D073A0319162D013A03191C2D033A6C
:103AA0000319222D013A0319282D2E2D0F14080079
:103AB0000030FC000030FB000030FA000030F9005C
:103AC00073087204710470040319672D682DB52DF5
:103AD000FD01FD0A782D0130F8000310F00DF10D05
:103AE000F20DF30DF80B6D2D0130F8007808FD078D
:103AF000F31F7B2D7C2D6B2D0130F8000310F90D89
:103B0000FA0DFB0DFC0DF80B7E2D73087702031DDB
:103B1000932D72087602031D932D71087502031D03
:103B2000932D70087402031C962D972DA62D7008F6
:103B3000F4027108031C710FF5027208031C720F66
:103B4000F6027308031C730FF70279140130031097
:103B5000F30CF20CF10CF00CFF3E031DA72D01300D
:103B6000FD02031DB42DB52D7C2D7C08F3007B08D0
:103B7000F2007A08F1007908F000080000300A1617
:103B80008A1117200A168A15033083120313D900ED
:103B90009730D800D80BCA2DD90BCA2D8312031326
:103BA0009F142B2E4330C1007F30C0000030BF0077
:103BB0000030BE004030A700A030A6000030A500B5
:103BC0000030A4001E08D800D901DA01DB015B082F
:103BD000F3005A08F2005908F1005808F0000130CB
:103BE0000A168A1546270A168A15730883120313C4
:103BF000AB007208AA007108A9007008A8000A1298
:103C00008A159F240A168A15831203132708C500F4
:103C10002608C4002508C3002408C2000A168A1119
:103C200090210A168A158312031341088316031381
:103C3000D20083120313400883160313D1008312AA
:103C400003133F0883160313D000831203133E08A7
:103C500083160313CF0083129F182F2E302ED22DE0
:103C6000080001300A168A1117200A168A15033037
:103C700083120313D9009730D800D80B3D2ED90BEF
:103C80003D2E831203139F149E2E4330C1007F30BC
:103C9000C0000030BF000030BE004030A700A030A0
:103CA000A6000030A5000030A4001E08D800D901ED
:103CB000DA01DB015B08F3005A08F2005908F10051
:103CC0005808F00001300A168A1546270A168A1588
:103CD000730883120313AB007208AA007108A900CD
:103CE0007008A8000A128A159F240A168A158312E2
:103CF00003132708C5002608C4002508C3002408AC
:103D0000C2000A168A1190210A168A15831203131B
:103D1000410883160313CE00831203134008831651
:103D20000313CD00831203133F0883160313CC0043
:103D3000831203133E0883160313CB0083129F18CC
:103D4000A22EA32E452E080000307005F80000308A
:103D50007105F90080307205FA007F307305FB00B1
:103D60007B087A0479047804031DB72EB82EC02E80
:103D70000030F3000030F2000030F1000030F000BD
:103D800000307405F80000307505F90080307605C4
:103D9000FA007F307705FB007B087A047904780409
:103DA000031DD32ED42EDC2E0030F7000030F60099
:103DB0000030F5000030F400F31FDF2EE02E042F5A
:103DC0000030F8000030F9000030FA008030FB00CD
:103DD0007008F8027108031C710FEF2EF02EF90223
:103DE0007208031C720FF52EF62EFA027308031CDC
:103DF000730FFB2EFC2EFB027B08F3007A08F20007
:103E00007908F1007808F000F71F072F082F2C2FF2
:103E10000030F8000030F9000030FA008030FB007C
:103E20007408F8027508031C750F172F182FF90274
:103E30007608031C760F1D2F1E2FFA027708031C2D
:103E4000770F232F242FFB027B08F7007A08F60058
:103E50007908F5007808F4008030F3068030F70622
:103E600077087302031D3E2F76087202031D3E2F52
:103E700075087102031D3E2F740870020318412F4C
:103E8000422F442F0310452F03140800F800780830
:103E900003194B2F4C2F602FF31F4F2F502F602FE4
:103EA0007009FA007109FB007209FC007309FD003A
:103EB000FA0A0319FB0A0319FC0A0319FD0A682F01
:103EC0007308FD007208FC007108FB007008FA001E
:103ED0007308720471047004031D6F2F702F792F03
:103EE0000030F3000030F2000030F1000030F0004C
:103EF000FF2F9630F4007408F9008B2F0130F40086
:103F00007408F90701300310FD0CFC0CFB0CFA0CD3
:103F1000FF3E031D832FFE307D05031D902F912F43
:103F20007E2FAD2F0130F4007408F9070130FA0735
:103F3000003003180130FB07003003180130FC0784
:103F4000003003180130FD0701300310FD0CFC0C9C
:103F5000FB0CFA0CFF3E031DA52FFF307D05031D52
:103F6000B22FB32F922FBF2F0130F9020130F4008E
:103F70000310FA0DFB0DFC0DFD0DF40BB82FFC1B0F
:103F8000C22FC32FC92F023079020318C82FC92F9F
:103F9000B42F7918CC2FCD2FD52FFF30FA05FF3055
:103FA000FB057F30FC05FF30FD050310F90C790897
:103FB000F400F501F601F70118300310F40DF50DCA
:103FC000F60DF70DFF3E031DDD2F7408FA0475088A
:103FD000FB047608FC047708FD0478080319F12F28
:103FE000F22FF72FF31FF52FF62FF72FFD177D0870
:103FF000F3007C08F2007B08F1007A08F00008006A
:04400E00D223FF3F7B
:00000001FF
