:020000040000FA
:060000000A128A110C280F
:10000800FE00030EF1000A08F2000A128A110F2DF1
:100018000A128A110F28F801F901FA018313203016
:1000280084003F300A128A1112260A128A118301AB
:100038000A128A118D2B83120313D2004930CB0088
:100048004B08CE006D292530540603192C282D287D
:1000580039285408CB00520884004B0883138000C9
:100068000130CB004B08D2076D29CF014808840026
:100078000A128A1196240A128A112E3A031D45285B
:1000880046287D280130CB004B08C807D3016C28CF
:10009800831203135308CB004B08F3000A300A12EB
:1000A8008A11B4250A128A1183120313CC004C0852
:1000B800D300480884000A128A1196240A128A1169
:1000C800D03ECB004B08D3070130CB004B08C80704
:1000D800480884000A128A1196240A128A110A1200
:1000E8008A11F0250A128A1103187B287C284C28CB
:1000F8007E28D301013083120313C807FF30480755
:1001080084000A128A1196240A128A11D400CB009C
:10011800CC014C08003A031992286D294B08003A83
:1001280003197F29643A03199D280D3A03199D285C
:100138006D294E08840083130008D000840A000843
:10014800D1000230CB004B08CE07D11FAC28AD2818
:10015800B6280330CB004B08CF04D009D109D00A08
:100168000319D10A5308031DBA28BB28C52850080B
:100178005104031DC028C128C5280130CB004B08F5
:10018800D307D401D40A5408CB004B07013E84009E
:100198000A128A1196240A128A11CC000A128A11AC
:1001A80096240A128A11CD004D085102031DDE283B
:1001B8004C0850020318E128E228E328ED28013012
:1001C800CB004B08D40705305406031DEC28ED2856
:1001D800C7285308CB00CC01CB1BCC034C08803A72
:1001E800803C031DF9284B0854020318FC28FD28FD
:1001F800FE281829831203135308CB00CC01CB1B0C
:10020800CC034C08803ACD0080304D02031D0E29E6
:1002180054084B02031811291229182983120313B1
:100228005408CB004B08D300831203134F0803393B
:1002380003191F29202964292D30CB005208840076
:100248004B08831380000130CB004B08D207642988
:100258000A30C2000030C3005308CB004B07013EF0
:1002680084000A128A1196240A128A11F3000A12CB
:100278008A1196240A128A11F4005108F6005008CF
:10028800F5000A128A11D8230A128A1174088312F7
:100298000313C5007308C4000A128A115A240A12EB
:1002A8008A11831203134208303ECC004C08D40054
:1002B8005408CB00520884004B0883138000272978
:1002C800FF30CB004B08D307530A031D6C296D2957
:1002D8002C290130C807FF30480784000A128A1108
:1002E80096240A128A11CB004B08D4005408031D27
:1002F8007E297F292728520884008313800108005B
:10030800F500FD29831203139F121F129F111F115D
:10031800372A831203139F121F129F111F15372AA2
:10032800831203139F121F129F151F11372A83125E
:1003380003139F121F129F151F15372A83120313C9
:100348009F121F169F111F11372A831203139F1222
:100358001F169F111F15372A831203139F121F168A
:100368009F151F11372A831203139F121F169F15FB
:100378001F15372A831203139F161F129F111F116F
:10038800372A831203139F161F129F111F15372A2E
:10039800831203139F161F129F151F11372A8312EA
:1003A80003139F161F129F151F15372A8312031355
:1003B8009F161F169F111F11372A831203139F16AA
:1003C8001F169F111F15372A831203139F161F1616
:1003D8009F151F11372A831203139F161F169F1587
:1003E8001F15372A831203139F121F129F111F1103
:1003F800372A7508F300F4017408003A0319052A2E
:10040800F6297308003A03198629013A03198D2938
:10041800033A03199429013A03199B29073A031946
:10042800A229013A0319A929033A0319B029013A63
:100438000319B7290F3A0319BE29013A0319C52927
:10044800033A0319CC29013A0319D329073A0319A6
:10045800DA29013A0319E129033A0319E829013A8B
:100468000319EF29F629831603139F018312031337
:100478009F171F131F140800F701F70A02300A120A
:100488008A11E9240A128A11831203132C080A120A
:100498008A119E250A128A112E300A128A119E2567
:1004A8000A128A11831203132D080A128A119E2533
:1004B8000A128A11831203132E080A128A119E2522
:1004C8000A128A11831203132F080A128A119E2511
:1004D8000A128A1120300A128A119E250A128A11DC
:1004E800033083120313C3009730C200C20B7A2A69
:1004F800C30B7A2A073083120313C2004208F7009D
:1005080002300A128A11E9240A128A11831203138B
:1005180034080A128A119E250A128A112E300A12EC
:100528008A119E250A128A118312031335080A12AA
:100538008A119E250A128A118312031336080A1299
:100548008A119E250A128A118312031337080A1288
:100558008A119E250A128A1120300A128A119E25B4
:100568000A128A110D3083120313C2004208F700E1
:1005780002300A128A11E9240A128A11831203131B
:100588003C080A128A119E250A128A118312031343
:100598003D080A128A119E250A128A118312031332
:1005A8003E080A128A119E250A128A1120300A1260
:1005B8008A119E250A128A110800F500192B831644
:1005C80003130F138F120F123B2B831603130F13F2
:1005D8008F120F163B2B831603130F138F160F1250
:1005E8003B2B831603130F138F160F163B2B831603
:1005F80003130F178F120F123B2B831603130F17BA
:100608008F120F163B2B831603130F178F160F121B
:100618003B2B831603130F178F160F163B2B8316CE
:1006280003130F178F160F123B2B7508F300F401F5
:100638007408003A0319212B132B7308003A031985
:10064800E32A013A0319E92A033A0319EF2A013A7E
:100658000319F52A073A0319FB2A013A0319012B52
:10066800033A0319072B013A03190D2B132B0F1407
:10067800080000300A128A1126260A128A1134301C
:1006880083120313C000F130BF00BF0B492BC00B0E
:10069800492B30300A128A1184250A128A110D302A
:1006A80083120313C000FB30BF00BF0B592BC00BD4
:1006B800592B30300A128A1184250A128A111D30EA
:1006C80083120313C0009030BF00BF0B692BC00B0F
:1006D800692B000030300A128A1184250A128A1107
:1006E80038300A128A1184250A128A110C300A122B
:1006F8008A1184250A128A1101300A128A11842566
:100708000A128A1106300A128A1184250A128A11DD
:1007180008000A128A1130250A128A110A128A114F
:100728001A260A128A110A128A1102260A128A1134
:100738000A128A1120260A128A110A128A113D23E6
:100748000A128A110A128A11DD250A128A11FF304B
:1007580083120313D8005808A8000A128A116825C2
:100768000A128A11033083120313D9009730D80074
:10077800D80BBC2BD90BBC2B0A128A114C250A1298
:100788008A110A128A111E240A128A110A128A115F
:1007980040220A128A110A128A11C9250A128A11DC
:1007A800B12B0A128A110C2883120313C001C1014C
:1007B800730874040319E12BE22B192CBF01BF0A3B
:1007C800F02B01300310F30DF40DFF3E031DE62B53
:1007D8000130F7007708BF07F41FF32BF42BE52B44
:1007E80001300310C00DC10DFF3E031DF52B740829
:1007F8007602031D012C73087502031C042C052CBA
:100808000C2C7308F5027408031CF603F602401456
:1008180001300310F40CF30CFF3E031D0D2C0130C6
:10082800BF02031D182C192CF42B4108F4004008B2
:10083800F30008001A3083120313D5005508C800C6
:100848002B08D600D7010310560DC900570DCA0052
:100858002C300A128A111F200A128A111A308312A8
:100868000313D5005508C8002A08D600D70103107D
:10087800560DC900570DCA0034300A128A111F20BC
:100888000A128A11203083120313D5005508C800B4
:100898002808D600D7015608C9005708CA003C30B6
:1008A8000A128A111F200A128A11080083120313E0
:1008B800420843040319612C622C912CC701C70A12
:1008C800702C01300310C20DC30DFF3E031D662CB2
:1008D8000130C6004608C707C31F732C742C652C4B
:1008E80043084502031D7A2C42084402031C7D2C50
:1008F8007E2C842C4208C4024308031CC503C5028D
:1009080001300310C30CC20CFF3E031D852C0130BF
:10091800C702031D902C912C742C4508C300440871
:10092800C200080004308A000408840A82070034E0
:10093800013400340A34003464340034E8340334B5
:1009480010342734533431343A34203420342034AA
:10095800533432343A3420342034533433343A3430
:10096800003425342E343334693456340034253475
:100978002E3433346934003483120313BF00C001AA
:10098800C101DB2C40083F0784000A128A11962413
:100998000A128A110A128A119E250A128A11013036
:1009A80083120313C0070318C10A0030C1074008A7
:1009B8003F0784000A128A1196240A128A11003A03
:1009C800031DE72CE82CC62C080083120313C00073
:1009D8004003031DF02CF12CFD2C77087F3EBF004F
:1009E8003F08C10041080A128A1184250A128A1197
:1009F8000E2D02304006031D022D032D0E2D770803
:100A0800BF3EBF003F08C10041080A128A11842571
:100A18000A128A110800831203138C1E142D152D37
:100A2800292D1A08F0007008F8000130F00070084D
:100A3800A8072B307806031D222D232D262DFF30E5
:100A48008600282D28088600F80172088A00710E91
:100A58008300FE0E7E0E090006300A128A11E1227A
:100A68000A128A110330831603178800890103309C
:100A780083160313850086010713871788018901E8
:100A88008312031385018601870188018901080003
:100A980001300A128A1184210A128A110330F700E0
:100AA8009730F600F60B562DF70B562D5B2D83125B
:100AB80003139F14632D1E08F6007608AA009F18DA
:100AC800662D672D5F2D080000300A128A118421D7
:100AD8000A128A110330F7009730F600F60B722DD0
:100AE800F70B722D772D831203139F147F2D1E0889
:100AF800F6007608AB009F18822D832D7B2D080009
:100B0800F60083120313091076080A128A112626A2
:100B18000A128A118312031309150B30F50062308B
:100B2800F400F40B952DF50B952D0000831203139B
:100B380009110800F50083120313091475080A1235
:100B48008A1126260A128A118312031309151A30EC
:100B5800F400F40BAD2D00008312031309110800F3
:100B6800F600F501761CB92DBA2DBE2D7308F400D8
:100B78007408F5070310F30D0310F60C7608031D2F
:100B8800C62DC72DB62D75080800831203130C1E39
:100B9800CE2DCF2DDC2D7A080319D32DD42DD82DA9
:100BA8002C309900FA01DC2D34309900FA01FA0A48
:100BB8000800023083120313C2004208F700013014
:100BC8000A128A11E9240A128A110B300A128A11B0
:100BD800C0240A128A110800F400F3013A307402A2
:100BE8000318F72DF82D002E30307402031CFD2D4C
:100BF800FE2D002EF301F30A730C08008312031371
:100C080098178316031318129816181318159810A6
:100C180083120313181318169A0108006400800140
:100C2800840A0406031900340406132E83160313DA
:100C38009A010C30990008008B170B1783160313C1
:100C48008C160800F3007308831203138800080049
:04400E00D423FF3F79
:00000001FF
