:020000040000FA
:100000000A128A11EA2F00308A000408840A820743
:100010000034533431343A340034533432343A34C3
:0A0020000034533433343A34003412
:100CB200F0007008831203138800080000300A1243
:100CC2008A1182260A128A1101300A128A11822698
:100CD2000A128A110800F20083120313091472081F
:100CE2000A128A1159260A128A118312031309154C
:100CF2001A30F100F10B7B2E00008312031309114D
:100D02000800F30083120313091073080A128A11F0
:100D120059260A128A118312031309150B30F200A5
:100D22006230F100F10B932EF20B932E000083122E
:100D320003130911080007300A128A118E270A12BA
:100D42008A11033083160317880089010330831642
:100D52000313850086018701880189018312031329
:100D6200850186018701880189010800F600760362
:100D7200031DBC2EBD2EC92E74087F3EF5007508DA
:100D8200F70077080A128A1182260A128A11DA2ECD
:100D920002307606031DCE2ECF2EDA2E7408BF3E09
:100DA200F5007508F70077080A128A1182260A12DE
:100DB2008A110800F500F301F401F22E7308750799
:100DC20084000A128A1103200A128A110A128A1155
:100DD2006C260A128A110130F3070318F40A003054
:100DE200F4077308750784000A128A1103200A1295
:100DF2008A11003A031DFE2EFF2EDF2E08000A1272
:100E02008A119C260A128A110A128A1143270A128F
:100E12008A110A128A115F260A128A110230F80018
:100E22007808F40001300A128A11B7260A128A11D0
:100E320001300A128A11DB260A128A110830F800E0
:100E42007808F40001300A128A11B7260A128A11B0
:100E520005300A128A11DB260A128A110D30F800B7
:100E62007808F40001300A128A11B7260A128A1190
:100E720009300A128A11DB260A128A110A2F0A1273
:100E82008A11002800300A128A1159260A128A1180
:100E92003430F500F130F400F40B4D2FF50B4D2FEB
:100EA200522F30300A128A1182260A128A110D300C
:100EB200F500FB30F400F40B5C2FF50B5C2F612F77
:100EC20030300A128A1182260A128A111D30F50068
:100ED2009130F400F40B6B2FF50B6B2F30300A12AC
:100EE2008A1182260A128A1138300A128A1182263F
:100EF2000A128A1108300A128A1182260A128A11EB
:100F020001300A128A1182260A128A1106300A1246
:100F12008A1182260A128A110800F200C62F83164D
:100F220003130F138F120F12E82F831603130F13DD
:100F32008F120F16E82F831603130F138F160F123B
:100F4200E82F831603130F138F160F16E82F83163D
:100F520003130F178F120F12E82F831603130F17A5
:100F62008F120F16E82F831603130F178F160F1207
:100F7200E82F831603130F178F160F16E82F831609
:100F820003130F178F160F12E82F7208F000F101EA
:100F92007108003A0319CE2FC02F7008003A0319C6
:100FA200902F013A0319962F033A03199C2F013A05
:100FB2000319A22F073A0319A82F013A0319AE2FDA
:100FC200033A0319B42F013A0319BA2FC02F0F1491
:100FD2000800F901FA01FB01FC0183120313A001CD
:100FE200A101A201A301A401A501A601A701A801D3
:0E0FF200A901AA01AB0183010A128A11002F86
:04400E00D220FF3F7E
:00000001FF
