:020000040000FA
:060000000A128A11EB2F29
:10000800F6007603031D09280A28162874087F3E7F
:10001800F5007508F70077080A128A15BA240A123B
:100028008A11272802307606031D1B281C2827283A
:100038007408BF3EF5007508F70077080A128A159C
:10004800BA240A128A1108000A128A15D4240A123C
:100058008A110A128A1544240A128A110A128A1568
:1000680031240A128A110A128A15D7250A128A110E
:100078000A128A1566240A128A110A128A157E261D
:100088000A128A11033083120313D9009730D8005B
:10009800D80B4C28D90B4C280A128A15E2260A12CA
:1000A8008A11033083120313D9009730D800D80B74
:1000B8005B28D90B5B280A128A158F240A128A1129
:1000C800F401F40A02300A128A1104200A128A1171
:1000D800A830F3000030F4000A128A1551250A12DC
:1000E8008A11073083120313D8005808F40002302D
:1000F8000A128A1104200A128A11A030F300003073
:10010800F4000A128A1551250A128A1141280A1286
:100118008A110028F2000729831203139F121F1265
:100128009F111F114129831203139F121F129F1140
:100138001F154129831203139F121F129F151F11A8
:100148004129831203139F121F129F151F1541295E
:10015800831203139F121F169F111F114129831227
:1001680003139F121F169F111F1541298312031392
:100178009F121F169F151F114129831203139F12E7
:100188001F169F151F154129831203139F161F124F
:100198009F111F114129831203139F161F129F11CC
:1001A8001F154129831203139F161F129F151F1134
:1001B8004129831203139F161F129F151F154129EA
:1001C800831203139F161F169F111F1141298312B3
:1001D80003139F161F169F111F154129831203131E
:1001E8009F161F169F151F114129831203139F166F
:1001F8001F169F151F154129831203139F121F12E3
:100208009F111F1141297208F000F1017108003A8D
:1002180003190F2900297008003A03199028013A98
:1002280003199728033A03199E28013A0319A528A8
:10023800073A0319AC28013A0319B328033A0319FA
:10024800BA28013A0319C1280F3A0319C828013AF4
:100258000319CF28033A0319D628013A0319DD28D0
:10026800073A0319E428013A0319EB28033A03195A
:10027800F228013A0319F9280029831603139F016C
:10028800831203139F171F131F14080083120313ED
:10029800AA002130A5002508A800962A25302E0698
:1002A80003195729582964292E08A5002A0884000B
:1002B8002508831380000130A5002508AA07962A7F
:1002C800A901200884000A128A150A200A128A1134
:1002D8002E3A031D70297129A8290130A500250887
:1002E800A007AD019729831203132D08A50025083F
:1002F800F0000A300A128A157A240A128A11831227
:100308000313A6002608AD00200884000A128A15E7
:100318000A200A128A11D03EA5002508AD0701302F
:10032800A5002508A007200884000A128A150A20BB
:100338000A128A110A128A1554240A128A110318F9
:10034800A629A7297729A929AD010130831203130A
:10035800A007FF30200784000A128A150A200A1213
:100368008A11AE00A500A6012608003A0319BD2986
:10037800962A2508003A0319A82A643A0319C829B5
:100388000D3A0319C829962A2808840083130008FF
:10039800AB00840A0008AC000230A5002508A807B5
:1003A800AC1FD729D829E1290330A5002508A904BD
:1003B800AB09AC09AB0A0319AC0A2D08031DE529E2
:1003C800E629F0292B082C04031DEB29EC29F02938
:1003D8000130A5002508AD07AE01AE0A2E08A5001C
:1003E8002507013E84000A128A150A200A128A117A
:1003F800A6000A128A150A200A128A11A7002708DD
:100408002C02031D092A26082B0203180C2A0D2A80
:100418000E2A182A0130A5002508AE0705302E0639
:10042800031D172A182AF2292D08A500A601A51BC5
:10043800A6032608803A803C031D242A25082E029C
:100448000318272A282A292A432A831203132D0846
:10045800A500A601A51BA6032608803AA7008030A0
:100468002702031D392A2E08250203183C2A3D2A93
:10047800432A831203132E08A5002508AD00831212
:1004880003132908033903194A2A4B2A8D2A2D30C8
:10049800A5002A0884002508831380000130A500E0
:1004A8002508AA078D2A0A30F8000030F9002D081F
:1004B800A5002507013E84000A128A150A200A129F
:1004C8008A11F0000A128A150A200A128A11F1000C
:1004D8002C08F3002B08F2000A128A1593250A1239
:1004E8008A117108FB007008FA000A128A1517258C
:1004F8000A128A117808303E83120313A6002608D0
:10050800AE002E08A5002A08840025088313800061
:10051800522AFF30A5002508AD072D0A031D952A8C
:10052800962A572A0130A007FF30200784000A12B4
:100538008A150A200A128A11A5002508AE002E087D
:10054800031DA72AA82A52292A0884008313800198
:1005580008008312031341088039C2004208CB0007
:100568004108C2004207C3004308D200C01FBD2A89
:10057800BE2ABF2A521452080319C32AC42AD42AED
:10058800520A031DC82AC92AD12A0030C1000030E6
:10059800C0000030BF000030BE00C017C101DC2A17
:1005A8000030C1000030C0000030BF000030BE0085
:1005B8003D088039C2004208CB063D08C200420708
:1005C800C3004308D300BC1FEA2AEB2AEC2A5314C1
:1005D80053080319F02AF12A012B530A031DF52A9F
:1005E800F62AFE2A0030BD000030BC000030BB00F7
:1005F8000030BA00BC17BD01092B0030BD00003027
:10060800BC000030BB000030BA003D083C043B048D
:100618003A04031D102B112B2A2B0030C100003087
:10062800C0000030BF000030BE008030C0047F3002
:10063800C1044B08C2004208C1044108BD0040087B
:10064800BC003F08BB003E08BA00892C5208031DB5
:100658002E2B2F2B382B0030BD000030BC00003073
:10066800BB000030BA00892C5208C200C3014308FD
:10067800C50053084202C400031CC50344087F3E5A
:10068800CC0045080318013E003ECD004108CA00D1
:100698004008C9003F08C8003E08C7000030C10034
:1006A8000030C0000030BF000030BE000030D10074
:1006B8000030D0000030CF000030CE00D301AE2B88
:1006C80053080319682B692B892B0130C2000310CA
:1006D800C70DC80DC90DCA0DC20B6B2B0130C20066
:1006E8000310BE0DBF0DC00DC10DC20B742BD11F61
:1006F8007E2B7F2B802B3E140130C2000310CE0DC1
:10070800CF0DD00DD10DC20B822B3D084A02031D1F
:10071800972B3C084902031D972B3B084802031DF1
:10072800972B3A084702031C9A2B9B2BAA2B51178D
:100738003A08C7023B08031C3B0FC8023C08031CCD
:100748003C0FC9023D08031C3D0FCA020130C2001C
:100758004208D3071A305302031CB32BB42B642B63
:100768004A084904480447040319BB2BBC2BDB2B5C
:100778004E14DB2B0130C2000310BE0DBF0DC00D9F
:10078800C10DC20BC02BD11FCA2BCB2BCC2B3E14B7
:100798000130C2000310CE0DCF0DD00DD10DC20B0C
:1007A800CE2BFF30CC070318CD0AFF30CD07C01F72
:1007B800DE2BDF2BBE2BD301D11FE32BE42B002C28
:1007C800FF304E05C200FF304F05C300FF30500513
:1007D800C4007F305105C500450844044304420461
:1007E8000319F72BF82BFB2BD301D30A002C3E1C43
:1007F800FE2BFF2B002CF82B53080319042C052C77
:10080800362C0130BE07003003180130BF07003016
:1008180003180130C007003003180130C107411C1C
:10082800162C172C362C3E08C2003F08C30040087F
:10083800C4004108C5000130C600450DC50CC40CF4
:10084800C30CC20CC60B212C4508C1004408C000CB
:100858004308BF004208BE000130CC070318CD0A88
:100868000030CD074D08803AFF0080307F02031D1D
:100878003F2CFF304C02031C422C432C512CFF30E0
:1008880083120313CC000030CD000030C1000030CB
:10089800C0000030BF000030BE00831203134D08B3
:1008A800803AFF0080307F02031D5C2C01304C022F
:1008B80003185F2C602C6D2C83120313CC01CD011F
:1008C8000030C1000030C0000030BF000030BE0062
:1008D800CB01831203134C08C2004208D200521CF9
:1008E800762C772C792CC0177D2C7F30C2004208DB
:1008F800C0055208C2000310420CC3004308C100DF
:100908004B08C2004208C104212B080083120313BC
:1009180023088039A8002808AD002308A800280764
:10092800A9002908B300A21F9A2C9B2C9C2C3314D5
:1009380033080319A02CA12CB02C330A031DA52CB5
:10094800A62CAE2C0030A3000030A2000030A1007D
:100958000030A000A217B82C0030A3000030A2007D
:100968000030A1000030A00027088039A80028081E
:10097800AD062708A8002807A9002908B200A61F65
:10098800C62CC72CC82C321432080319CC2CCD2CF9
:10099800DC2C320A031DD12CD22CDA2C0030A70013
:1009A8000030A6000030A5000030A400A617E42CF3
:1009B8000030A7000030A6000030A5000030A400D9
:1009C80032080319E82CE92CEE2C3308031DED2C12
:1009D800EE2CF72C0030A3000030A2000030A1005C
:1009E8000030A000EA2F2008A8002808F0002608F8
:1009F8000A128A15F0240A128A1171088312031345
:100A0800B9007008B8003808A800A901AA01AB010C
:100A18002B08B1002A08B0002908AF002808AE004A
:100A28003908A800A901AA01AB012B08B7002A08B8
:100A3800B6002908B5002808B4002108A80028082D
:100A4800F00025080A128A15F0240A128A11710882
:100A580083120313B9007008B8003808A800A90168
:100A6800AA01AB012808AE07290803110318013EA3
:100A780003193F2DAF072A0803110318013E031974
:100A8800462DB0072B0803110318013E03194D2DFD
:100A9800B1073908A800A901AA01AB012808B407C1
:100AA800290803110318013E03195B2DB5072A080D
:100AB80003110318013E0319622DB6072B08031111
:100AC8000318013E0319692DB7072208A800280852
:100AD800F00024080A128A15F0240A128A117108F3
:100AE80083120313B9007008B8003808A800A901D8
:100AF800AA01AB012808AE07290803110318013E13
:100B08000319872DAF072A0803110318013E03199B
:100B18008E2DB0072B0803110318013E0319952DDC
:100B2800B1073908A800A901AA01AB012808B40730
:100B3800290803110318013E0319A32DB5072A0834
:100B480003110318013E0319AA2DB6072B08031138
:100B58000318013E0319B12DB7070830A800031088
:100B6800AE0DAF0DB00DB10DA80BB32D2108A80027
:100B78002808F00024080A128A15F0240A128A119B
:100B8800710883120313B9007008B8003808A80068
:100B98003908A900AA01AB012808AE0729080311E2
:100BA8000318013E0319D92DAF072A0803110318AA
:100BB800013E0319E02DB0072B0803110318013E6D
:100BC8000319E72DB1072008A8002808F000250818
:100BD8000A128A15F0240A128A1171088312031363
:100BE800B9007008B8003808A8003908A900AA0197
:100BF800AB012808AE07290803110318013E0319A1
:100C0800062EAF072A0803110318013E03190D2EFB
:100C1800B0072B0803110318013E0319142EB1075E
:100C28000830A8000310AE0DAF0DB00DB10DA80B24
:100C3800162E2008A8002808F00024080A128A1591
:100C4800F0240A128A11710883120313B90070087C
:100C5800B8003808A8003908A900AA01AB0128087B
:100C6800AE07290803110318013E03193C2EAF07EC
:100C78002A0803110318013E0319432EB0072B0855
:100C880003110318013E03194A2EB1072108A800D1
:100C98002808F00026080A128A15F0240A128A1178
:100CA800710883120313B9007008B8003808A80047
:100CB8003908A900AA01AB012808B40729080311BB
:100CC8000318013E0319692EB5072A0803110318F2
:100CD800013E0319702EB6072B0803110318013EB5
:100CE8000319772EB7072208A8002808F00025085E
:100CF8000A128A15F0240A128A1171088312031342
:100D0800B9007008B8003808A8003908A900AA0175
:100D1800AB012808B407290803110318013E031979
:100D2800962EB5072A0803110318013E03199D2EB4
:100D3800B6072B0803110318013E0319A42EB707A1
:100D48002208A8002808F00026080A128A15F024AC
:100D58000A128A11710883120313B9007008B800C7
:100D68003808A8003908A900AA01AB010830031007
:100D7800A80DA90DAA0DAB0DFF3E031DBB2E28081B
:100D8800B407290803110318013E0319CC2EB5072F
:100D98002A0803110318013E0319D32EB6072B089E
:100DA80003110318013E0319DA2EB7072E08A8000D
:100DB8002F08A9003008AA003108AB00183003102A
:100DC800AB0CAA0CA90CA80CFF3E031DE32E2808A7
:100DD800B407290803110318013E0319F42EB507B7
:100DE8002A0803110318013E0319FB2EB6072B0826
:100DF80003110318013E0319022FB7070830A80092
:100E08000310AE0DAF0DB00DB10DA80B042F3308B4
:100E18003207A800A901A90D2808823EB8002908B0
:100E28000318013EFF3EB900362F0130A800031019
:100E3800B40DB50DB60DB70DA80B1B2FB11F252F7F
:100E4800262F272F34140130A8000310AE0DAF0D44
:100E5800B00DB10DA80B292FFF30B8070318B90A38
:100E6800FF30B907B61F392F3A2F192FB201B11F1A
:100E78003E2F3F2F5B2FFF302E05A800FF302F0598
:100E8800A900FF303005AA007F303105AB002B08E0
:100E98002A04290428040319522F532F562FB2016C
:100EA800B20A5B2F341C592F5A2F5B2F532F32084D
:100EB80003195F2F602F912F0130B40700300318FA
:100EC8000130B507003003180130B60700300318A9
:100ED8000130B707371C712F722F912F3408A800E3
:100EE8003508A9003608AA003708AB000130AC0065
:100EF8002B0DAB0CAA0CA90CA80CAC0B7C2F2B0847
:100F0800B7002A08B6002908B5002808B40001303F
:100F1800B8070318B90A0030B9073908803AFF0042
:100F280080307F02031D9A2FFF303802031C9D2F4B
:100F38009E2FA92F7F3083120313B7008030B6008D
:100F48000030B5000030B400DE2F831203133908D7
:100F5800803AFF0080307F02031DB42F0130380231
:100F68000318B72FB82FC42F003083120313B7000C
:100F78000030B6000030B5000030B400AD01DE2FFF
:100F8800831203133808A8002808B300FF30B405FB
:100F9800FF30B5057F30B6050030B705331CD52FB7
:100FA800D62FD72FB6173308A8000310280CA9008E
:100FB8002908B7002D08A8002808B7043708A30097
:100FC8003608A2003508A1003408A00008008313E1
:100FD8005A3084006D300A128A153C240A128A118C
:100FE800A0308400B0300A128A153C240A128A11F3
:100FF80083010A128A112828FF1B0A2883137F18E5
:1010080083170008840A0319FF0A080008308A00B9
:101018000408840A82070034013400340A34003496
:1010280064340034E834033410342734533431340E
:101038003A34203420342034533432343A3420348F
:101048002034533433343A34003425342E34333492
:0410580069340034C3
:101862000C308316031399000800F00070088312ED
:1018720003138800080064008001840A0406031927
:10188200003404063D2C83120313981783160313A6
:101892001812981618131815981083120313181398
:1018A20018169A010800F100F0013A30710203188B
:1018B2005B2C5C2C642C30307102031C612C622C7A
:1018C200642CF001F00A700C08000230FA007A0869
:1018D200F40001300A128A1104200A128A150B3010
:1018E200F3008030F4000A128A1551250A128A1573
:1018F2000800F300F201731C7F2C802C842C7008EA
:10190200F1007108F2070310F00D0310F30C7308D5
:10191200031D8C2C8D2C7C2C720808001A3083122B
:101922000313AF002F08A0006108A4006008A30001
:101932005F08A2005E08A100A0300A128A114A21A3
:101942000A128A150800F20083120313091472089E
:101952000A128A1536240A128A15831203130915EC
:101962001A30F100F10BB32C00008312031309119A
:101972000800F30083120313091073080A128A1570
:1019820036240A128A158312031309150B30F2004A
:101992006230F100F10BCB2CF20BCB2C0000831246
:1019A20003130911080006300A128A1522260A12A8
:1019B2008A150330831603178800890103308316C2
:1019C2000313850086010713871788018901831293
:1019D2000313850186018701880189010800F80047
:1019E200F401F5017008F200F3017208F6007308C1
:1019F200F700781CFD2CFE2C042D7608F407031842
:101A0200F50A7708F50701300310F60DF70DFF3ED2
:101A1200031D052D0310F80C7808031D112D122D3E
:101A2200FA2C7508F1007408F000080078087904AF
:101A320003191C2D1D2D4C2DFD01FD0A2B2D0130EE
:101A42000310F80DF90DFF3E031D212D0130FC009E
:101A52007C08FD07F91F2E2D2F2D202D79087B02E2
:101A6200031D352D78087A02031C382D392D3F2DA0
:101A72007808FA027908031CFB03FB020130031009
:101A8200F90CF80CFF3E031D402D0130FD02031D31
:101A92004B2D4C2D2F2D7B08F9007A08F8000800F9
:101AA200F801F901762D78087307F6007408F5003D
:101AB2000318F50AF81F5E2DF5037508F70077087D
:101AC20083120313FF00760884000A128A1500208D
:101AD2000A128A150A128A15A4240A128A150130DA
:101AE200F8070318F90A0030F90778087307F600B7
:101AF2007408F5000318F50AF81F802DF503750820
:101B0200F700770883120313FF00760884000A1295
:101B12008A1500200A128A15003A031D912D922D72
:101B2200542D0800F501F6017008710403199A2D6D
:101B32009B2DD22DF701F70AA92D01300310F00DCC
:101B4200F10DFF3E031D9F2D0130F4007408F707CD
:101B5200F11FAC2DAD2D9E2D01300310F50DF60DAC
:101B6200FF3E031DAE2D71087302031DBA2D7008CE
:101B72007202031CBD2DBE2DC52D7008F202710824
:101B8200031CF303F302751401300310F10CF00C83
:101B9200FF3E031DC62D0130F702031DD12DD22DAC
:101BA200AD2D7608F1007508F000080000300A1229
:101BB2008A1536240A128A153430F500F130F40001
:101BC200F40BE12DF50BE12DE62D30300A128A15CA
:101BD200BA240A128A150D30F500FB30F400F40B1A
:101BE200F02DF50BF02DF52D30300A128A15BA249E
:101BF2000A128A151D30F5009130F400F40BFF2D06
:101C0200F50BFF2D30300A128A15BA240A128A15F2
:101C120038300A128A15BA240A128A150C300A12AE
:101C22008A15BA240A128A1501300A128A15BA24B0
:101C32000A128A1506300A128A15BA240A128A155D
:101C42000800F2005A2E831603130F138F120F127D
:101C52007C2E831603130F138F120F167C2E8316FE
:101C620003130F138F160F127C2E831603130F13F9
:101C72008F160F167C2E831603130F178F120F1257
:101C82007C2E831603130F178F120F167C2E8316CA
:101C920003130F178F160F127C2E831603130F17C1
:101CA2008F160F167C2E831603130F178F160F1223
:101CB2007C2E7208F000F1017108003A0319622EBD
:101CC200542E7008003A0319242E013A03192A2EC1
:101CD200033A0319302E013A0319362E073A031933
:101CE2003C2E013A0319422E033A0319482E013AB7
:101CF20003194E2E542E0F14080000300A128A11B6
:101D02008E200A128A15033083120313D5009730EE
:101D1200D400D40B8A2ED50B8A2E831203139F1460
:101D2200DD2E4330BD007F30BC000030BB000030F0
:101D3200BA004030A300A030A2000030A100003061
:101D4200A0001E08D400D501D601D7015708F30020
:101D52005608F2005508F1005408F00001300A124A
:101D62008A1546270A128A15730883120313A700DD
:101D72007208A6007108A5007008A4000A128A1150
:101D82008A240A128A15831203132308C100220827
:101D9200C0002108BF002008BE000A128A11AD222D
:101DA2000A128A15831203133D08E1003C08E00081
:101DB2003B08DF003A08DE009F18E02EE12E922E4B
:101DC200080001300A128A118E200A128A15033085
:101DD20083120313D5009730D400D40BEE2ED50B0B
:101DE200EE2E831203139F14412F4330BD007F3028
:101DF200BC000030BB000030BA004030A300A0306D
:101E0200A2000030A1000030A0001E08D400D501BD
:101E1200D601D7015708F3005608F2005508F10021
:101E22005408F00001300A128A1546270A128A1550
:101E3200730883120313A7007208A6007108A50095
:101E42007008A4000A128A118A240A128A158312BF
:101E520003132308C1002208C0002108BF00200884
:101E6200BE000A128A11AD220A128A1583120313C6
:101E72003D08DD003C08DC003B08DB003A08DA00E4
:101E82009F18442F452FF62E0800F80078080319F2
:101E92004B2F4C2F602FF31F4F2F502F602F7009A5
:101EA200FA007109FB007209FC007309FD00FA0ACD
:101EB2000319FB0A0319FC0A0319FD0A682F7308A8
:101EC200FD007208FC007108FB007008FA0073083C
:101ED200720471047004031D6F2F702F792F00306C
:101EE200F3000030F2000030F1000030F000FF2F6C
:101EF2009630F4007408F9008B2F0130F400740856
:101F0200F90701300310FD0CFC0CFB0CFA0CFF3E30
:101F1200031D832FFE307D05031D902F912F7E2FF1
:101F2200AD2F0130F4007408F9070130FA070030D0
:101F320003180130FB07003003180130FC070030A2
:101F420003180130FD0701300310FD0CFC0CFB0CE3
:101F5200FA0CFF3E031DA52FFF307D05031DB22F96
:101F6200B32F922FBF2F0130F9020130F40003107A
:101F7200FA0DFB0DFC0DFD0DF40BB82FFC1BC22F4F
:101F8200C32FC92F023079020318C82FC92FB42FCB
:101F92007918CC2FCD2FD52FFF30FA05FF30FB0556
:101FA2007F30FC05FF30FD050310F90C7908F400C1
:101FB200F501F601F70118300310F40DF50DF60DD9
:101FC200F70DFF3E031DDD2F7408FA047508FB04AC
:101FD2007608FC047708FD0478080319F12FF22F24
:101FE200F72FF31FF52FF62FF72FFD177D08F300BC
:0E1FF2007C08F2007B08F1007A08F00008007D
:04400E00D223FF3F7B
:00000001FF
