:020000040000FA
:060000000A128A110C280F
:10000800FE00030EF1000A08F2000A128A119C2C65
:100018000A128A110F2883133E30FD000530FE00B6
:10002800AA30FF00203084000A128A112D260A12F5
:100038008A11A0308400B4300A128A1193260A1259
:100048008A115230840060300A128A1193260A12EB
:100058008A11F801F901FA0183010A128A11A72904
:100068007A080A128A11C8250A128A118312031300
:10007800C2004208FA0079080A128A11C8250A1231
:100088008A1183120313C2004208F9005E080A129B
:100098008A11C8250A128A1183120313C200420862
:1000A800DE005D080A128A11C8250A128A11831215
:1000B8000313C2004208DD005C080A128A11C82531
:1000C8000A128A1183120313C2004208DC005B087B
:1000D8000A128A11C8250A128A1183120313C20050
:1000E8004208DB000A30F3000030F4005E08C2006A
:1000F800C3014208F5004308F6000A128A118C224F
:100108000A128A117308303E83120313C40044088C
:10011800B5000A30F3000030F4005E08C200C301E5
:100128004208F5004308F6000A128A115D230A12F4
:100138008A117308303E83120313C4004408B600C2
:100148000A30F3000030F4007908C200C301420805
:10015800F5004308F6000A128A118C220A128A1145
:100168007308303E83120313C4004408B8000A30F1
:10017800F3000030F4007908C200C3014208F5001A
:100188004308F6000A128A115D230A128A117308BD
:10019800303E83120313C4004408B9000A30F30048
:1001A8000030F4007A08C200C3014208F500430891
:1001B800F6000A128A118C220A128A117308303E3C
:1001C80083120313C4004408BB000A30F300003054
:1001D800F4007A08C200C3014208F5004308F6009B
:1001E8000A128A115D230A128A117308303E83129B
:1001F8000313C4004408BC000A30F3000030F400C4
:100208005D08C200C3014208F5004308F6000A125F
:100218008A118C220A128A117308303E8312031342
:10022800C4004408A6000A30F3000030F4005D085A
:10023800C200C3014208F5004308F6000A128A11F9
:100248005D230A128A117308303E83120313C40017
:100258004408A7000A30F3000030F4005C08C2002C
:10026800C3014208F5004308F6000A128A118C22DD
:100278000A128A117308303E83120313C40044081B
:10028800A9000A30F3000030F4005C08C200C30182
:100298004208F5004308F6000A128A115D230A1283
:1002A8008A117308303E83120313C4004408AA005D
:1002B8000A30F3000030F4005B08C200C3014208B2
:1002C800F5004308F6000A128A118C220A128A11D4
:1002D8007308303E83120313C4004408AC000A308C
:1002E800F3000030F4005B08C200C3014208F500C7
:1002F8004308F6000A128A115D230A128A1173084C
:10030800303E83120313C4004408AD00F701F70A16
:1003180001300A128A115F250A128A112F300A1237
:100328008A1185250A128A11F701F70A02300A1282
:100338008A115F250A128A1120300A128A1185252E
:100348000A128A1108000A128A11CE240A128A1186
:100358008316031388010A128A1112240A128A11B9
:100368000A128A113C260A128A110A128A11B82323
:100378000A128A110A128A1181260A128A11D030A9
:10038800F3000030F4000A128A116E260A128A114C
:100398000030F300F4000A128A116E260A128A113C
:1003A8000A128A118A260A128A11D130F300003003
:1003B800F4000A128A116E260A128A110130F3001B
:1003C8000030F4000A128A112F250A128A117308C4
:1003D80083120313CF004F08FA000130F3000030F6
:1003E800F4000A128A112F250A128A11730883123F
:1003F8000313CF004F08F9000130F3000030F40078
:100408000A128A112F250A128A11730883120313FC
:10041800CF004F08DE000130F3000030F4000A126C
:100428008A112F250A128A110130F3000030F400D6
:100438000A128A112F250A128A11730883120313CC
:10044800CF004F08DD000130F3000030F4000A123D
:100458008A112F250A128A11730883120313CF00F9
:100468004F08DC000030F300F4000A128A112F252F
:100478000A128A11730883120313CF004F08DB0096
:100488000A128A1178260A128A110A128A1134204D
:100498000A128A1183120313DF015F082F3E8400BA
:1004A80083130008CF00D0014F08F4005008F5006E
:1004B8000A128A11FF240A128A11013083120313C7
:1004C800CF004F08DF070D305F02031C6C2A6D2A2E
:1004D800512A0D300A128A1162260A128A110A302C
:1004E8000A128A1162260A128A1102308312031331
:1004F800D1000430D000B930CF00CF0B812AD00B07
:10050800812AD10B812A882ABE290A128A110C282D
:1005180083120313BF01F41F922A932A9A2AF3091C
:10052800F409F30A0319F40ABF01BF0AF61F9D2A4A
:100538009E2AA72AF509F609F50A0319F60A0130D1
:10054800F7007708BF06C001C101730874040319D6
:10055800AE2AAF2AE62ABE01BE0ABD2A0130031020
:10056800F30DF40DFF3E031DB32A0130F7007708A1
:10057800BE07F41FC02AC12AB22A01300310C00DD9
:10058800C10DFF3E031DC22A74087602031DCE2A40
:1005980073087502031CD12AD22AD92A7308F502D6
:1005A8007408031CF603F602401401300310F40C1F
:1005B800F30CFF3E031DDA2A0130BE02031DE52AB3
:1005C800E62AC12A3F080319EA2AEB2AF02AC009B9
:1005D800C109C00A0319C10A4108F4004008F30020
:1005E8000800003083120313C9000030C80000302F
:1005F800C7000030C600410840043F043E04031908
:10060800062B072B542BCA01CA0A172B0130F300FB
:100618000310BE0DBF0DC00DC10DF30B0C2B013027
:10062800F3007308CA07C11F1A2B1B2B0A2B0130B2
:10063800F3000310C60DC70DC80DC90DF30B1D2B14
:1006480041084502031D322B40084402031D322B8A
:100658003F084302031D322B3E084202031C352B80
:10066800362B452B3E08C2023F08031C3F0FC3022E
:100678004008031C400FC4024108031C410FC50277
:10068800461401300310C10CC00CBF0CBE0CFF3E59
:10069800031D462B0130CA02031D532B542B1B2B61
:1006A8004908C1004808C0004708BF004608BE0006
:1006B800080083120313BF01F61F632B642B6B2BF7
:1006C800F509F609F50A0319F60ABF01BF0AF41F6E
:1006D8006E2B6F2B742BF309F409F30A0319F40A30
:1006E800730874040319792B7A2BA92BBE01BE0A4F
:1006F800882B01300310F30DF40DFF3E031D7E2BF4
:100708000130F7007708BE07F41F8B2B8C2B7D2B4D
:1007180074087602031D922B73087502031C952B2F
:10072800962B9C2B7308F5027408031CF603F6023B
:1007380001300310F40CF30CFF3E031D9D2B013018
:10074800BE02031DA82BA92B8C2B3F080319AD2B28
:10075800AE2BB32BF509F609F50A0319F60A760844
:10076800F4007508F30008000A128A1181260A129B
:100778008A11D030F3000030F4000A128A116E2674
:100788000A128A110030F300F4000A128A116E2648
:100798000A128A110030F300F4000A128A116E2638
:1007A8000A128A113030F3000030F4000A128A115C
:1007B8006E260A128A110630F3000030F4000A127D
:1007C8008A116E260A128A110130F3000030F400F3
:1007D8000A128A116E260A128A110830F3000030B4
:1007E800F4000A128A116E260A128A110330F300E5
:1007F8000030F4000A128A116E260A128A111B3080
:10080800F3000030F4000A128A116E260A128A11C7
:100818000A128A1178260A128A11080000300A1270
:100828008A11A7260A128A11343083120313BF00D3
:10083800F130BE00BE0B1E2CBF0B1E2C30300A122E
:100848008A11E4250A128A110D3083120313BF009E
:10085800FB30BE00BE0B2E2CBF0B2E2C30300A12E4
:100868008A11E4250A128A111D3083120313BF006E
:100878009030BE00BE0B3E2CBF0B3E2C000030302B
:100888000A128A11E4250A128A1138300A128A11CA
:10089800E4250A128A110C300A128A11E4250A1278
:1008A8008A1101300A128A11E4250A128A110630C7
:1008B8000A128A11E4250A128A11080028308312C4
:1008C80003139400831603139101831203134B0837
:1008D800F4004C08F5004D08F6004E08F700023009
:1008E8000310F40DF50DF60DF70DFF3E031D742CE6
:1008F8007708C1007608C0007508BF007408BE00FC
:100908000030C5007A30C4001230C3000030C20085
:100918000A128A11F5220A128A11831203133E0859
:10092800FF3E8316031393009401871507160800EA
:10093800831203138C1EA12CA22CC72C1A08F000BA
:100948007008F80031307806031DAB2CAC2CAE2CA7
:100958000517C62C32307806031DB32CB42CB62CE0
:100968000513C62C33307806031DBB2CBC2CBE2CBB
:100978008517C62C34307806031DC32CC42CC62C0E
:100988008513C62CF80172088A00710E8300FE0ECA
:100998007E0E090083160317880189018316031345
:1009A80085010330860007138717880189018312A0
:1009B8000313850186018701880189010030CE0073
:1009C8000130CD008630CC00A030CB000A128A114D
:1009D80062240A128A110A128A119B260A128A11A3
:1009E8000A128A1156260A128A110A128A11A12697
:1009F8000A128A11080083120313BE011C2D3E0837
:100A08007407F6000030031801307507F700760800
:100A180084008317771C831300080A128A11622640
:100A28000A128A110130F600760883120313BE07F2
:100A38003E087407F6000030031801307507F70008
:100A4800760884008317771C83130008031D2D2D57
:100A58002E2D032D08000A128A1149260A128A111E
:100A68008316031391150A128A1149260A128A114C
:100A7800831203131308F500F6017508BE00760803
:100A8800BF000A128A1149260A128A1173037404D4
:100A9800031D4F2D502D542D831603139112572DDE
:100AA8008316031391161116831203133F08F400DB
:100AB8003E08F300080083120313BF003F03031D21
:100AC800662D672D732D77087F3EBE003E08C00057
:100AD80040080A128A11E4250A128A11842D02306C
:100AE8003F06031D782D792D842D7708BF3EBE0063
:100AF8003E08C00040080A128A11E4250A128A1129
:100B0800080083120313C000BE01BF019E2D3E08DA
:100B18004007F6007608840000080A128A11FE25AC
:100B28000A128A11013083120313BE070318BF0A81
:100B38000030BF073E084007F6007608840083139C
:100B48000008031DA82DA92D8B2D0800443441341D
:100B5800543445343A342034303430342F3430343B
:100B680030342F34303430340034543449344D3434
:100B780045343A342034303430343A343034303434
:100B88003A34303430340034F7000F3077058312AC
:100B98000313BE000A30BF003F08F3007708C00007
:100BA80004300310C00CFF3E031DD52D40080A1267
:100BB8008A1114260A128A11831203133E070800A9
:100BC800F60083120313091076080A128A11A72661
:100BD8000A128A118312031309150B30F5006230CB
:100BE800F400F40BF52DF50BF52D0000831203131B
:100BF80009110800F50083120313091475080A1275
:100C08008A11A7260A128A118312031309151A30AA
:100C1800F400F40B0D2E00008312031309110800D1
:100C2800F600F501761C192E1A2E1E2E7308F400F4
:100C38007408F5070310F30D0310F60C7608031D6E
:100C4800262E272E162E750808007E088A007F0893
:100C580082000A128A1129260A128A118000840A3F
:100C680004087D0603190034FF0A0319FE0A2D2E15
:100C780000300A128A11E4250A128A1101300A1278
:100C88008A11E4250A128A1108008316031314191D
:100C98004E2E4F2E492E11081F39031D542E552E46
:100CA800492E08008312031398178316031318128A
:100CB80098168312031318169A010800F300831676
:100CC8000313981C682E692E632E7308831203136E
:100CD800990008000A128A1149260A128A11730813
:100CE80083120313930008000A128A1149260A1274
:100CF8008A1183160313111508000A128A1149264E
:100D08000A128A1183160313111408000A128A1191
:100D180049260A128A1183160313911408006400E5
:100D28008001840A0406031900340406942E8316ED
:100D380003139A010C30990008008B170B178316C0
:100D480003138C160800F30073088312031388003A
:020D5800080091
:04400E00D420FF3F7C
:00000001FF
