:020000040000FA
:060000000A128A110C280F
:10000800FE00030EF0000A08F1000A168A15E22B1A
:100018000A128A110F28FA01FB0183120313EC015B
:10002800ED01EE01EF018313A0308400CF300A16F2
:100038008A15F8230A128A1183010A168A15642F71
:100048008316031363086204610403192C282D28FE
:10005800BD28610883120313C500831603136208C1
:1000680083120313C6008316031363088312031352
:10007800C7000A128A1528200A128A11831203134C
:100088004808470446044504031D4B284C28BD284E
:10009800831603136008803AFF0080307F02031D37
:1000A800572802305F02031C5A285B28BD28831694
:1000B80003135708F2005808F3005908F400703089
:1000C800F5008930F6004030F7000A168A15DE255B
:1000D8000A128A110318712872287B28F7308316B0
:1000E8000313DF070318E00AFF30E0078328F8301E
:1000F80083160313DF070318E00AFF30E0075F08E1
:100108000A128A155D220A128A11831203133C0807
:1001180083160313D700831203133D0883160313B2
:10012800D800831203133E0883160313D90061080D
:10013800F2006208F3006308F4005708F500580855
:10014800F6005908F7000A168A111F240A128A11A4
:10015800750883160313DE007408DD007308DC00DD
:100168007208DB000030E1000030E2000030E300FC
:100178003A2983160313610883120313C5008316F3
:100188000313620883120313C6008316031363085C
:1001980083120313C7000A128A1528200A128A112B
:1001A80083120313480883160313DE008312031314
:1001B800470883160313DD008312031346088316CA
:1001C8000313DC0083120313450883160313DB00B3
:1001D8005E0883120313A300831603135D088312BA
:1001E8000313A200831603135C0883120313A100F0
:1001F800831603135B0883120313A0000A168A15DB
:100208000D250A128A11831203132008D900210828
:10021800DA002208DB008316031361088312031334
:10022800DC0083160313620883120313DD008316B0
:100238000313630883120313DE000A168A15BF240A
:100248000A128A1183120313590883160313E10053
:10025800831203135A0883160313E200831203134D
:100268005B0883160313E300DF01E001E701E70AF7
:10027800670883120313E30001300310E30DFF3E08
:10028800031D41290310630D4F3E84000A168A118D
:100298000A200A128A11E4000A168A110A200A1290
:1002A8008A11E5000A168A110A200A128A11E60044
:1002B8000A168A110A200A128A11E70067088316AB
:1002C80003135E02031D7E29831203136608831637
:1002D80003135D02031D7E29831203136508831629
:1002E80003135C02031D7E2983120313640883161B
:1002F80003135B020318812982298329912901307C
:1003080083120313E300630883160313E7070A3015
:100318006706031D902991293C2967086507831200
:100328000313E3008316031366080318660A83128F
:100338000313E400831603135F0883120313630790
:10034800E5008316031360080318600A8312031379
:100358006407E600650883160313D50283120313A6
:10036800660883160313031CD603D60265086604C1
:100378000319BF29C029C629FF30D5070318D60A93
:10038800FF30D6070330530583120313E300003010
:1003980083160313540583120313E40063086404EB
:1003A8000319D729D829F529FF3083160313D50750
:1003B8000318D60AFF30D607F52920308312031315
:1003C800E30083160313640884008312031363088D
:1003D800831380000130E300630883160313E407E6
:1003E800D829831603135608803AFF0080307F020D
:1003F800031D002A013055020318032A042AE129A3
:10040800033083160313530583120313E3000030EC
:1004180083160313540583120313E400630864046A
:100428000319172A182ABC2A2D30E3008316031350
:100438006408840083120313630883138000013067
:10044800E300630883160313E407BC2A67088312D2
:100458000313E30001300310E30DFF3E031D2F2AB1
:100468000310630D4F3E84000A168A110A200A12EF
:100478008A11F2000A168A110A200A128A11F30058
:100488000A168A110A200A128A11F4000A168A1119
:100498000A200A128A11F500831603135E08F90070
:1004A8005D08F8005C08F7005B08F6000A168A1178
:1004B80064220A128A11750883160313DA00740875
:1004C800D9007308D8007208D700003083120313CC
:1004D800A9000030A8000030A7000A30A600831643
:1004E80003135A0883120313AD0083160313590824
:1004F80083120313AC0083160313580883120313E3
:10050800AB0083160313570883120313AA000A16B5
:100518008A11FB200A128A118312031329088316F1
:100528000313DA0083120313280883160313D90070
:1005380083120313270883160313D80083120313A7
:10054800260883160313D7005708303E8312031377
:10055800E3008316031364088400831203136308FB
:10056800831380000130E300630883160313E40754
:10057800013083160313E702670A031DC42AC52A3C
:100588002A2ADF2A303083120313E3008316031369
:100598006408840083120313630883138000013006
:1005A800E300630883160313E407FF30DF0703182B
:1005B800E00AFF30E0076008803AFF0080307F02E1
:1005C800031DE82A01305F020318EB2AEC2AC62A29
:1005D800831603136608803AFF0080307F02031DEC
:1005E800F72A09306502031CFA2AFB2A042B083073
:1005F80083120313E300630883160313E7000E2B2B
:1006080083160313650883120313E3006308831634
:100618000313E700670883120313E300E401630888
:1006280083160313E5028312031364088316031366
:10063800031CE603E60267080319232B242B372B38
:100648002E3083120313E300831603136408840017
:10065800831203136308831380000130E3006308E7
:1006680083160313E40767080A128A155D220A1223
:100678008A11831203133C0883160313CF008312D5
:1006880003133D0883160313D000831203133E0897
:1006980083160313D1004F0883120313AF00831688
:1006A8000313500883120313B00083160313510871
:1006B80083120313B1008316031361088312031313
:1006C800AC0083160313620883120313AD0083166C
:1006D8000313630883120313AE000A128A11D82683
:1006E8000A128A11831203132C08C5002D08C600AC
:1006F8002E08C7000A128A1528200A128A118312A6
:100708000313480883160313DE00831203134708F4
:1007180083160313DD00831203134608831603139D
:10072800DC0083120313450883160313DB00892CAE
:10073800670883120313E30001300310E30DFF3E43
:10074800031DA12B0310630D4F3E84000A168A1166
:100758000A200A128A11F2000A168A110A200A12BD
:100768008A11F3000A168A110A200A128A11F40063
:100778000A168A110A200A128A11F5008316031331
:100788005E08F9005D08F8005C08F7005B08F600F1
:100798000A168A1164220A128A117508831603132D
:1007A800DA007408D9007308D8007208D70000303E
:1007B80083120313A9000030A8000030A7000A30F4
:1007C800A600831603135A0883120313AD00831679
:1007D8000313590883120313AC0083160313580834
:1007E80083120313AB0083160313570883120313F2
:1007F800AA000A168A11FB200A128A11831203130F
:10080800290883160313DA008312031328088316B2
:100818000313D90083120313270883160313D80080
:1008280083120313260883160313D7005708303E94
:1008380083120313E30083160313640884008312EE
:1008480003136308831380000130E30063088316F1
:100858000313E407670883120313E300013003104E
:10086800E30DFF3E031D332C0310630D4F3E840040
:100878000A168A110A200A128A11A6000A168A1173
:100888000A200A128A11A7000A168A110A200A12D7
:100898008A11A8000A168A110A200A128A11A900C8
:1008A800831603135E0883120313AD008316031324
:1008B8005D0883120313AC00831603135C088312CC
:1008C8000313AB00831603135B0883120313AA00F8
:1008D8000A168A11FB200A128A11831203132908A7
:1008E80083160313DE0083120313280883160313E9
:1008F800DD0083120313270883160313DC00831219
:100908000313260883160313DB000130E702670A86
:10091800031D8F2C902C9C2BAA2C30308312031390
:10092800E300831603136408840083120313630827
:10093800831380000130E300630883160313E40780
:10094800FF30E5070318E60AFF30E6076508660486
:10095800031DAF2CB02C912CBA2E8316031352080A
:1009680084008313000883120313E300840A000839
:10097800E400630883160313DB008312031364087F
:1009880083160313DC000030DC1BFF30DD00DE00C3
:10099800023083120313E300630883160313D2079C
:1009A800DE1FD72CD82CE72C0330D3040030D40416
:1009B800DB09DC09DD09DE09DB0A0319DC0A031996
:1009C800DD0A0319DE0A65086604031DEC2CED2C0C
:1009D800FB2C5E085D045C045B04031DF42CF52C01
:1009E800FB2C0130E5070318E60A0030E607E701AB
:1009F800E70A670883120313E30001300310E30DCD
:100A0800FF3E031D022D0310630D4F3E84000A169E
:100A18008A110A200A128A11E4000A168A110A2089
:100A28000A128A11E5000A168A110A200A128A1186
:100A3800E6000A168A110A200A128A11E7006708D6
:100A4800831603135E02031D3F2D831203136608EA
:100A5800831603135D02031D3F2D831203136508DC
:100A6800831603135C02031D3F2D831203136408CE
:100A7800831603135B020318422D432D442D522D78
:100A8800013083120313E300630883160313E70797
:100A98000A306706031D512D522DFD2C6608803A39
:100AA800803C031D592D6508670203185C2D5D2DD8
:100AB800682D83160313650883120313E300630884
:100AC80083160313E7008C2D831603136608803AF8
:100AD80083120313E30080306302031D772D83160E
:100AE80003136708650203187A2D7B2D8C2D831656
:100AF8000313670883120313E300E40163088316F2
:100B08000313E50083120313640883160313E60036
:100B180083160313550856040319932D942DAE2DEF
:100B28000330530583120313E300003083160313C5
:100B3800540583120313E400630864040319A52D04
:100B4800A62DAE2DFF3083160313D5070318D60A3A
:100B5800FF30D60783160313541FB32DB42DD72D9A
:100B68006608803A83120313E300831603135608BA
:100B7800803A831203136302031DC62D83160313E1
:100B8800550865020318C92DCA2DD32D83160313E2
:100B98006508D5026608031CD603D602D72D83162E
:100BA8000313D501D6015608803A803C031DDE2D7B
:100BB800550867020318E12DE22DF62D831603135D
:100BC800670883120313E300E40163088316031321
:100BD800D50283120313640883160313031CD60378
:100BE800D602FA2D83160313D501D60155085604EB
:100BF8000319FF2D002E1F2E203083120313E3004C
:100C08008316031364088400831203136308831391
:100C180080000130E300630883160313E407FF3004
:100C2800D5070318D60AFF30D60755085604031D02
:100C38001E2E1F2E002E0330530583120313E300CC
:100C4800003083160313540583120313E40063086A
:100C580064040319302E312EAA2E2D30E30083169A
:100C6800031364088400831203136308831380004A
:100C78000130E300630883160313E407AA2E00304B
:100C880083120313A9000030A8000030A7000A301F
:100C9800A60083160313650883120313E3000130CB
:100CA8000310E30DFF3E031D542E0310630D4F3E4A
:100CB80084000A168A110A200A128A11F2000A16FA
:100CC8008A110A200A128A11F3000A168A110A20C8
:100CD8000A128A11F4000A168A110A200A128A11C5
:100CE800F500831603135E08F9005D08F8005C0838
:100CF800F7005B08F6000A168A1164220A128A11A4
:100D0800750883120313AD007408AC007308AB00B8
:100D18007208AA000A168A11FB200A128A11831285
:100D280003132608303EE400640883160313E70023
:100D3800670883120313E30083160313640884000F
:100D4800831203136308831380003C2EFF3083163D
:100D58000313E5070318E60AFF30E607650A031DD3
:100D6800B92E660A031DB92EBA2E432E01308312FE
:100D7800DF07FF305F0784000A168A110A200A126B
:100D88008A11E300630883160313E7006708031D4D
:100D9800CE2ED12E0A128A15262D83160313640827
:100DA8008400831380010800831203132C08B20007
:100DB8002D08B3002E08B4000310330D340DB50010
:100DC8003508B6003608031DEA2EEB2EF22E003049
:100DD800AC000030AD000030AE00BC2F2F08B200D0
:100DE8003008B3003108B4000310330D340DB500DA
:100DF8003508BB003B08031D022F032F0A2F0030C4
:100E0800AC000030AD000030AE00BC2F3B087B3E8C
:100E1800B2003208B6072C08B2002D08B3002E081D
:100E2800B40010300310B40CB30CB20CFF3E031D19
:100E3800162F3208B5003508BB002F08B20030085D
:100E4800B3003108B40010300310B40CB30CB20C6A
:100E5800FF3E031D282F3208B5003508BB06803039
:100E6800B2003208BB05AD17B017FF30AF05FF3031
:100E7800B0050030B1050030B7000030B8000030D0
:100E8800B9000730B2003208BA002C1C4C2F4D2F85
:100E98005D2F2F08B707300803110318300A03190C
:100EA800562FB807310803110318310A03195D2FAB
:100EB800B90701300310AE0CAD0CAC0CFF3E031D9E
:100EC8005E2F01300310AF0DB00DB10DFF3E031DB5
:100ED800662F0130BA02031D722F732F492F093074
:100EE800B2003208BA002C1C7A2F7B2F8B2F2F08C8
:100EF800B707300803110318300A0319842FB807FD
:100F0800310803110318310A03198B2FB90701306F
:100F18000310AE0CAD0CAC0CFF3E031D8C2F013042
:100F28000310B90CB80CB70CFF3E031D942F013009
:100F3800BA02031DA02FA12F772F3708F200380817
:100F4800F3003908F4003608B2003208F5003B080F
:100F5800B3003308F6000A168A11A3230A128A116D
:100F6800720883120313AC007308AD007408AE0056
:100F78000800B53083120313E9006908DF006E0822
:100F8800EA00EB016A08E0006B08E100C7300A12CA
:100F98008A1518250A128A11A33083120313E9004F
:100FA8006908DF0083160313340883120313E00073
:100FB80083160313350883120313E1008316031302
:100FC800360883120313E200BF300A128A15182567
:100FD8000A128A11B03083120313E9006908DF008E
:100FE8006D08E1006C08E000B7300A128A15182570
:060FF8000A128A11080034
:10100600F601F701721C082809280F287408F6074C
:101016000318F70A7508F70701300310F40DF50DEC
:10102600FF3E031D102801300310F30CF20CFF3EA7
:10103600031D172872087304031D22282328052878
:101046007708F3007608F2000800831203134508B8
:10105600C9004608CA004708CB0003104A0D4B0DCD
:10106600CC004C08D2005208031D3A283B284428DD
:101076000030C8000030C7000030C6000030C50090
:10108600B3284508C9004608CA004708CB001730F0
:101096000310CB0CCA0CC90CFF3E031D4B28490894
:1010A600CC004C08CD00C617FF30C505FF30C6057D
:1010B6000030C7054508CE004608CF004708D000D7
:1010C600D1018E30D202D21F69286A28842852089C
:1010D600803A8F3E03187028712872283B28013009
:1010E6000310D10CD00CCF0CCE0CFF3E031D732881
:1010F6000130C9004908D207031D822883287228B7
:101106009B2818305202031C89288A2896283B28D7
:101116000130C9000310CE0DCF0DD00DD10DC90B76
:101126008D280130D2025208031D9A289B288B284D
:101136004D0803199F28A028AB28CE09CF09D0094E
:10114600D109CE0A0319CF0A0319D00A0319D10A05
:101156005108C8005008C7004F08C6004E08C50011
:10116600080083120313CB006E304B02031CBC280D
:10117600BD289A290330BF003F08A8004B08C000CD
:10118600C1014008F4004108F5006430F200003067
:10119600F3000A168A1516260A128A157308831290
:1011A6000313A3007208A2000A30A0000030A100B9
:1011B6000A168A158D260A128A1583120313200829
:1011C6000A168A156A240A128A15433E84000A16EC
:1011D6008A110A200A128A1583120313AC000A1612
:1011E6008A110A200A128A15AD000A168A110A20E7
:1011F6000A128A15AE000330C2004208A8004B0846
:10120600C300C4014308A2004408A3006430A00040
:101216000030A1000A168A158D260A128A15831235
:10122600031320080A168A156A240A128A155E3ED6
:1012360084000A168A110A200A128A1583120313D9
:10124600AF000A168A110A200A128A15B0000A1679
:101256008A110A200A128A15B1000A128A11D826A2
:101266000A128A15831203132C08C8002D08C90018
:101276002E08CA000330BF003F08A8004B08C00074
:10128600C1014008F4004108F5000A30F2000030C0
:10129600F3000A168A1516260A128A1572080A1605
:1012A6008A156A240A128A15283E84000A168A11AB
:1012B6000A200A128A1583120313AC000A168A1131
:1012C6000A200A128A15AD000A168A110A200A1285
:1012D6008A15AE004808AF004908B0004A08B100B8
:1012E6000A128A11D8260A128A15831203132C08A9
:1012F600C5002D08C6002E08C7000030AC0000301F
:10130600AD003F30AE004508AF004608B0004708C4
:10131600B1000A128A11D8260A128A1583120313FB
:101326002C08BC002D08BD002E08BE005C2A0B3020
:101336004B02031C9F29A029292A0330BF003F081E
:10134600A8004B08C000C1014008F4004108F500A0
:101356000A30F2000030F3000A168A1516260A1221
:101366008A1572080A168A156A240A128A15283EF0
:1013760084000A168A110A200A128A158312031398
:10138600AC000A168A110A200A128A15AD000A163E
:101396008A110A200A128A15AE000330C2004208DA
:1013A600A8004B08C300C4014308A2004408A300D8
:1013B6000A30A0000030A1000A168A158D260A12EE
:1013C6008A158312031320080A168A156A240A123C
:1013D6008A15433E84000A168A110A200A128A15C3
:1013E60083120313AF000A168A110A200A128A15FD
:1013F600B0000A168A110A200A128A15B1000A12CA
:101406008A11D8260A128A15831203132C08C800DB
:101416002D08C9002E08CA000030AC000030AD000F
:101426003F30AE004808AF004908B0004A08B10096
:101436000A128A11D8260A128A15831203132C0857
:10144600BC002D08BD002E08BE005C2A0030AC0092
:101456000030AD003F30AE000330BF003F08A800AB
:101466004B080A168A156A240A128A15283E840031
:101476000A168A110A200A128A1583120313AF006C
:101486000A168A110A200A128A15B0000A168A114B
:101496000A200A128A15B1000A128A11D8260A12DF
:1014A6008A15831203132C08BC002D08BD002E08D4
:1014B600BE00080083120313C400C41F632A642AF3
:1014C600BF2BC409C40A4408803A123E031C6C2A86
:1014D6006D2A2B2B0330BF003F08A8004408F400F8
:1014E600F501F41BF5036430F2000030F3000A1630
:1014F6008A1151210A128A15730883120313A30055
:101506007208A2000A30A0000030A1000A168A1153
:10151600CC220A128A158312031320080A168A158A
:101526006A240A128A15433E84000A168A110A2082
:101536000A128A1583120313AC000A168A110A20AE
:101546000A128A15AD000A168A110A200A128A158D
:10155600AE000330C0004008A8004408A200A30162
:10156600A21BA3036430A0000030A1000A168A1152
:10157600CC220A128A158312031320080A168A152A
:101586006A240A128A155E3E84000A168A110A2007
:101596000A128A1583120313AF000A168A110A204B
:1015A6000A128A15B0000A168A110A200A128A152A
:1015B600B1000A128A11D8260A128A158312031359
:1015C6002C08C1002D08C2002E08C3000330BF003E
:1015D6003F08A8004408F400F501F41BF5030A309F
:1015E600F2000030F3000A168A1151210A128A15F8
:1015F60072080A168A156A240A128A15283E840079
:101606000A168A110A200A128A1583120313AC00DD
:101616000A168A110A200A128A15AD000A168A11BC
:101626000A200A128A15AE004108AF004208B0002F
:101636004308B1000A128A11D8260A128A158312A3
:1016460003132C08BC002D08BD002E08BE00172D64
:101656004408803A753E031C312B322B9E2B0330F7
:10166600BF003F08A8004408F400F501F41BF50389
:101676000A30F2000030F3000A168A1151210A12CC
:101686008A1572080A168A156A240A128A15283ECD
:1016960084000A168A110A200A128A158312031375
:1016A600AC000A168A110A200A128A15AD000A161B
:1016B6008A110A200A128A15AE000330C0004008BB
:1016C600A8004408A200A301A21BA3030A30A0009D
:1016D6000030A1000A168A11CC220A128A1583123A
:1016E600031320080A168A156A240A128A15433E2D
:1016F60084000A168A110A200A128A158312031315
:10170600AF000A168A110A200A128A15B0000A16B4
:101716008A110A200A128A15B1000A128A11D826DD
:101726000A128A15831203132C08BC002D08BD006B
:101736002E08BE00172D0330BF003F08A80044083E
:101746000A168A156A240A128A15283E84000A1681
:101756008A110A200A128A1583120313BC000A167C
:101766008A110A200A128A15BD000A168A110A2051
:101776000A128A15BE00172D4408803A123E031C31
:10178600C52BC62B842C0330BF003F08A800440895
:10179600F400F501F41BF5036430F2000030F300A9
:1017A6000A168A1151210A128A1573088312031325
:1017B600A3007208A2000A30A0000030A1000A1699
:1017C6008A11CC220A128A158312031320080A16DC
:1017D6008A156A240A128A151C3E84000A168A1182
:1017E6000A200A128A1583120313AC000A168A11FC
:1017F6000A200A128A15AD000A168A110A200A1250
:101806008A15AE000330C0004008A8004408A200B4
:10181600A301A21BA3036430A0000030A1000A1696
:101826008A11CC220A128A158312031320080A167B
:101836008A156A240A128A15373E84000A168A1106
:101846000A200A128A1583120313AF000A168A1198
:101856000A200A128A15B0000A168A110A200A12EC
:101866008A15B1000A128A11D8260A128A1583121D
:1018760003132C08C1002D08C2002E08C300033034
:10188600BF003F08A8004408F400F501F41BF50367
:101896000A30F2000030F3000A168A1151210A12AA
:1018A6008A1572080A168A156A240A128A15013ED2
:1018B60084000A168A110A200A128A158312031353
:1018C600AC000A168A110A200A128A15AD000A16F9
:1018D6008A110A200A128A15AE004108AF00420892
:1018E600B0004308B1000A128A11D8260A128A15D6
:1018F600831203132C08BC002D08BD002E08BE0061
:10190600172D4408803A753E031C8A2C8B2CF72C25
:101916000330BF003F08A8004408F400F501F41B9B
:10192600F5030A30F2000030F3000A168A1151213D
:101936000A128A1572080A168A156A240A128A1564
:10194600013E84000A168A110A200A128A15831299
:101956000313AC000A168A110A200A128A15AD0072
:101966000A168A110A200A128A15AE000330C00030
:101976004008A8004408A200A301A21BA3030A3042
:10198600A0000030A1000A168A11CC220A128A157C
:101996008312031320080A168A156A240A128A1566
:1019A6001C3E84000A168A110A200A128A1583121E
:1019B6000313AF000A168A110A200A128A15B0000C
:1019C6000A168A110A200A128A15B1000A128A1109
:1019D600D8260A128A15831203132C08BC002D0878
:1019E600BD002E08BE00172D0330BF003F08A8001B
:1019F60044080A168A156A240A128A15013E8400CA
:101A06000A168A110A200A128A1583120313BC00C9
:101A16000A168A110A200A128A15BD000A168A11A8
:101A26000A200A128A15BE00080083160313E40072
:101A3600603083120313E300630883160313D20096
:101A46000A128A11BA2E2530670603192B2D2C2D62
:101A5600402D670883120313E300831603136408FB
:101A66008400831203136308831380000130E300AC
:101A7600630883160313E407232DD501D601D3018A
:101A8600D401831203135F0884000A168A110A2000
:101A96000A128A150A168A152C240A128A15031C9C
:101AA600552D562DA02D83160313D501D6010A30C8
:101AB600F2000030F300831603135608F5005508AC
:101AC600F4000A128A1503200A128A15730883166F
:101AD6000313D6007208D500831203135F0884002F
:101AE6000A168A110A200A128A15D03EE300FF3030
:101AF60003180030E400630883160313D5070318A0
:101B0600D60A83120313640883160313D60701301B
:101B160083120313E3006308DF075F0884000A16D5
:101B26008A110A200A128A150A168A152C240A1204
:101B36008A1503189F2DA02D5A2D831203135F08B3
:101B460084000A168A110A200A128A152E3A031DE3
:101B5600AD2DAE2D042E83160313541701308312B8
:101B66000313E3006308DF0783160313E501E601A9
:101B7600F22D0A30F2000030F300831603136608D4
:101B8600F5006508F4000A128A1503200A128A1560
:101B9600730883160313E6007208E5008312031325
:101BA6005F0884000A168A110A200A128A15D03E96
:101BB600E300FF3003180030E400630883160313C4
:101BC600E5070318E60A8312031364088316031352
:101BD600E607013083120313E3006308DF0783126D
:101BE6005F0884000A168A110A200A128A150A1644
:101BF6008A152C240A128A150318022E032EBC2DD0
:101C06000E2E83160313E501E60154160E2E8316D7
:101C160003135415342E013083120313DF07FF30EC
:101C26005F0784000A168A110A200A128A1583168B
:101C36000313E70083120313E300E4016408003A88
:101C46000319262E232D6308003A0319FD2F643A43
:101C56000319342E023A03190A2E0F3A0319342EA9
:101C6600232D003083160313530583120313E30059
:101C7600073083160313540583120313E400630825
:101C860064040319472E4A2E0A128A11B12C8316B0
:101C96000313541E4F2E502E542E0630E5000030EE
:101CA600E6005208840083130008E100840A000855
:101CB600E200840A0008E300033083120313E30002
:101CC600630883160313D2076108F2006208F30063
:101CD6006308F4000030F5000030F6000030F7002D
:101CE6000A168A15DE250A128A1503187B2E7C2E03
:101CF600952E831603136108F2006208F300630849
:101D0600F4000A168A1509240A128A15720883161F
:101D16000313E1007308E2007408E3000330D30400
:101D26000030D40483160313DF01E0016308620464
:101D3600610403199F2EA02EA22FE1308400831385
:101D4600000883120313E300840A0008E400840AEF
:101D56000008E500840A0008E6000F300310E60CD0
:101D6600E50CE40CE30CFF3E031DB12EFF306305CA
:101D7600E70000306405E8006708823E8316031317
:101D8600DF008312031368080318013EFF3E831623
:101D96000313E000FF30DF070318E00AFF30E00717
:101DA6000330F2000030F3006008F5005F08F4002D
:101DB6000A128A1503200A128A157308831603135A
:101DC600E0007208DF000A3083120313A00000301F
:101DD600A10083160313600883120313A30083165E
:101DE60003135F0883120313A2000A168A11CC227A
:101DF6000A128A1583120313210883160313E000BF
:101E060083120313200883160313DF00E01F0C2F31
:101E16000D2F132FFF30DF070318E00AFF30E0070E
:101E26005F03FF3A0A128A155D220A128A15831287
:101E360003133C0883160313D700831203133D08CC
:101E460083160313D800831203133E088316031365
:101E5600D900610883120313AC00831603136208CA
:101E660083120313AD00831603136308831203134F
:101E7600AE0083160313570883120313AF008316AD
:101E86000313580883120313B0008316031359086B
:101E960083120313B1000A128A11D8260A128A1570
:101EA600831203132C0883160313D700831203131C
:101EB6002D0883160313D800831203132E088316E6
:101EC6000313D9005708F2005808F3005908F40024
:101ED6000030F5008030F6003F30F7000A168A150C
:101EE600DE250A128A150318792F7A2F832FFF30E1
:101EF60083160313DF070318E00AFF30E007A22F5B
:101F0600831603135708F2005808F3005908F40023
:101F16000030F5002030F6004130F7000A168A1529
:101F2600DE250A128A15031C992F9A2FA22F01303B
:101F360083160313DF070318E00A0030E007831651
:101F460003136608803AFF0080307F02031DAD2F21
:101F56000D3065020318B02FB12FEA2F8316031335
:101F660065080A128A15B4200A128A158312031309
:101F76003C08CC003D08CD003E08CE008316031376
:101F8600610883120313CF008316031362088312BA
:101F96000313D00083160313630883120313D100BF
:101FA6000A168A11CA260A128A15831203134C08C6
:101FB60083160313E100831203134D0883160313DC
:101FC600E200831203134E0883160313E3008316FD
:101FD60003136008803AFF0080307F02031DF52F4F
:101FE6000A305F020318FA2F0A128A1124280A12ED
:101FF6008A115B280A128A11D12EFF1B0A28831325
:102006007F1883170008840A0319FF0A0800103096
:102016008A000408840A82070034003480343F347E
:102026000034203441340034C834423400347A3425
:10203600443440341C3446345034C3344734243496
:1020460074344934973418344B34BC34BE344C346D
:102056006B346E344E340334153450347934AD3425
:102066006034F33449347134003480343F34CD3431
:10207600CC343D34D73423343C34123483343A34AC
:10208600B734D1343834C634273437343834863408
:102096003534C034D6343334CC342B343234703403
:1020A60089343034E734DB342E34E5343C341E34A2
:1020B6004234A2340D3401340034003400340A347E
:1020C6000034003400346434003400340034E8341E
:1020D6000334003400341034273400340034A03480
:1020E600863401340034403442340F3400348034B2
:1020F6009634983400340034E134F5340534003431
:10210600CA349A343B3443344F344E345434203436
:1021160020342034413444344334203420342034B1
:10212600543445344D3450340034543445344D34ED
:1021360050343A34203420340A34003443344F3493
:102146004E3454343A34203420340A340034413482
:10215600443443343A34203420340A3400342534A9
:1021660031342E343234663456340034B034433489
:10217600203420340A34003425342E343234693481
:10218600003425342E343334693400344334003477
:1021A000F601E72876087307840074080318740A98
:1021B000FF000A168A1100200A168A110A168A15CB
:1021C00013240A168A110130F5007508F6077608FF
:1021D0007307840074080318740A83120313FF0042
:1021E0000A168A1100200A168A11003A031DF928DE
:1021F000FA28D22808008312031329082804270488
:1022000026040319042905294829AF01AF0A152915
:102210000130AE000310A60DA70DA80DA90DAE0B41
:102220000A290130AE002E08AF07A91F1829192965
:10223000082929082D02031D272928082C02031D1F
:10224000272927082B02031D272926082A02031CF9
:102250002A292B2939292608AA022708031C270F17
:10226000AB022808031C280FAC022908031C290F05
:10227000AD0201300310A90CA80CA70CA60CFF3E60
:10228000031D3A290130AF02031D472948291929A6
:102290002D08A9002C08A8002B08A7002A08A600D2
:1022A0000800F801F51F552956295D29F409F5099B
:1022B000F40A0319F50AF801F80AF31F60296129E5
:1022C0006629F209F309F20A0319F30A7208730482
:1022D00003196B296C299B29F701F70A7A29013028
:1022E0000310F20DF30DFF3E031D70290130F600BF
:1022F0007608F707F31F7D297E296F297308750279
:10230000031D842972087402031C872988298E29D9
:102310007208F4027308031CF503F5020130031080
:10232000F30CF20CFF3E031D8F290130F702031D51
:102330009A299B297E29780803199F29A029A52974
:10234000F409F509F40A0319F50A7508F30074088D
:10235000F2000800F400E229831603130F138F1212
:102360000F12042A831603130F138F120F16042A59
:10237000831603130F138F160F12042A83160313E9
:102380000F138F160F16042A831603130F178F12BD
:102390000F12042A831603130F178F120F16042A25
:1023A000831603130F178F160F12042A83160313B5
:1023B0000F178F160F16042A831603130F178F1685
:1023C0000F12042A7408F200F3017308003A03198B
:1023D000EA29DC297208003A0319AC29013A0319E9
:1023E000B229033A0319B829013A0319BE29073A59
:1023F0000319C429013A0319CA29033A0319D02938
:10240000013A0319D629DC290F1408009230F30091
:102410008030F4000A168A11D0200A168A11C730BB
:10242000F3000030F4000A168A11D0200A168A112F
:102430009F30F3008030F4000A168A11D0200A166B
:102440008A119B30F3008030F4000A168A11D020E4
:102450000A168A11BF30F3000030F4000A168A1100
:10246000D0200A168A119F30F3008030F4000A163B
:102470008A11D0200A168A118930F3008030F400C6
:102480000A168A11D0200A168A11B730F3000030DC
:10249000F4000A168A11D0200A168A11AA30F30015
:1024A0008030F4000A168A11D0200A168A110D30E5
:1024B0000A168A1513240A168A110A300A168A1572
:1024C00013240A168A110800003083120313A40093
:1024D0000030A3000030A2000030A1007508740491
:1024E000730472040319752A762AC32AA501A50A62
:1024F000862A0130A0000310F20DF30DF40DF50D46
:10250000A00B7B2A0130A0002008A507F51F892A0F
:102510008A2A792A0130A0000310A10DA20DA30D73
:10252000A40DA00B8C2A75087902031DA12A74083A
:102530007802031DA12A73087702031DA12A7208DD
:102540007602031CA42AA52AB42A7208F60273088C
:10255000031C730FF7027408031C740FF80275084C
:10256000031C750FF902211401300310F50CF40C53
:10257000F30CF20CFF3E031DB52A0130A502031D2A
:10258000C22AC32A8A2A2408F5002308F400220854
:10259000F3002108F200080083120313A501A11F14
:1025A000D22AD32ADA2AA009A109A00A0319A10A6A
:1025B000A501A50AA31FDD2ADE2AE72AA209A3098D
:1025C000A20A0319A30A0130F9007908A506A60199
:1025D000A701200821040319EE2AEF2A262BA401C3
:1025E000A40AFD2A01300310A00DA10DFF3E031D1A
:1025F000F32A0130F9007908A407A11F002B012B51
:10260000F22A01300310A60DA70DFF3E031D022B79
:1026100021082302031D0E2B20082202031C112B6C
:10262000122B192B2008A2022108031CA303A302CA
:10263000261401300310A10CA00CFF3E031D1A2B21
:102640000130A402031D252B262B012B250803197D
:102650002A2B2B2B302BA609A709A60A0319A70A98
:102660002708A1002608A0000800003083120313E9
:10267000BC007F30BD004330BE000030AC00A03055
:10268000AD004030AE007B08CC00CD014C08A0006E
:102690004D08A1000A168A15E4240A168A1183122D
:1026A00003132008AF002108B0002208B1000A126D
:1026B0008A11D8260A168A11831203132C08BF0028
:1026C0002D08C0002E08C1000A168A11DC240A1643
:1026D0008A11831203133C0883160313B400831278
:1026E00003133D0883160313B500831203133E083A
:1026F00083160313B600FF3083120313A0000030CB
:10270000A1007A08CC00CD014C08F2004D08F3007E
:102710009630F4000030F5000A128A1503200A16DC
:102720008A11730883120313A3007208A2000A1609
:102730008A11CC220A168A11831203132108ED0094
:102740002008EC00080075080319A72BA82BAF2B55
:10275000740873047204031DAE2BAF2BC22B003020
:10276000F2000030F3000030F4001E2C0130F700BE
:102770007708F50701300310F40CF30CF20CFF3E60
:10278000031DBB2BFE307405031DC72BC82BB62BB6
:10279000DF2B0130F7007708F5070130F207003032
:1027A00003180130F307003003180130F40701303B
:1027B0000310F40CF30CF20CFF3E031DD82BFF307A
:1027C0007405031DE42BE52BC92BF02B0130F5021A
:1027D00001300310F20DF30DF40DFF3E031DE92B44
:1027E000F31BF32BF42BFA2B023075020318F92B91
:1027F000FA2BE62B7518FD2BFE2B042CFF30F2056F
:102800007F30F305FF30F4050310F50C7508F70071
:10281000F801F90110300310F70DF80DF90DFF3E26
:10282000031D0B2C7708F2047808F3047908F404EC
:10283000760803191C2C1D2C1E2CF4170800720896
:1028400083120313A0007308A1007408A2000310F0
:10285000210D220DA3002308A9002908031D312CF6
:10286000322C3B2C0030F5000030F4000030F30037
:102870000030F200DB2C7508A0007608A100770874
:10288000A2000310210D220DA3002308A800280890
:10289000031D4B2C4C2C4D2C322CF317FF30F20522
:1028A000FF30F3050030F405F617FF30F505FF3073
:1028B000F6050030F7050030A7000030A600003014
:1028C000A5000030A4007F30A90298302807A0009E
:1028D0002008A9021830A0002008A8000130A0009C
:1028E0000310A40DA50DA60DA70DA00B702C770845
:1028F0007402031D812C76087302031D812C750858
:102900007202031C842C852C902C7508F202760828
:10291000031C760FF3027708031C770AF4022414D1
:1029200001300310F20DF30DF40DFF3E031D912C49
:102930000130A802031D9D2C9E2C6E2CA91FA12CDA
:10294000A22CBC2C2908803A973E0318A82CA92C4D
:10295000AA2C322C01300310A70CA60CA50CA40C39
:10296000FF3E031DAB2C0130A0002008A907031D6A
:10297000BA2CBB2CAA2CD32C18302902031CC12C36
:10298000C22CCE2C322C0130A0000310A40DA50DBA
:10299000A60DA70DA00BC52C0130A9022908031D07
:1029A000D22CD32CC32C2708F5002608F4002508C8
:1029B000F3002408F2000800831203133F08C2004A
:1029C0004008C3004108C4000310430D440DC50076
:1029D0004508CA004A08031DEE2CEF2CF62C0030E7
:1029E000BC000030BD000030BE009D2D3C08C20080
:1029F0003D08C3003E08C4000310430D440DC5004C
:102A00004508CB004B08031D062D072D0E2D003069
:102A1000BC000030BD000030BE009D2D0030C7005E
:102A20000030C8000030C90089304B07C20042089E
:102A3000CA023F08C2004008C3004108C400103069
:102A40000310C40CC30CC20CFF3E031D202D420812
:102A5000C5004508CB003C08C2003D08C3003E0845
:102A6000C40010300310C40CC30CC20CFF3E031D85
:102A7000322D4208C5004508CB068030C20042080E
:102A8000CB05C017FF30BF05FF30C0050030C105C2
:102A9000BD17FF30BC05FF30BD050030BE05183046
:102AA000C2004208C60001300310C70DC80DC90D91
:102AB000FF3E031D542D3E084102031D652D3D08B8
:102AC0004002031D652D3C083F02031C682D692D43
:102AD000742D3C08BF023D08031C3D0FC0023E0898
:102AE000031C3E0AC102471401300310BF0DC00D84
:102AF000C10DFF3E031D752D0130C602031D812D42
:102B0000822D532D4708F2004808F3004908F400CD
:102B10004A08C2004208F5004B08C3004308F6000B
:102B20000A168A11A3230A168A1172088312031344
:102B3000BC007308BD007408BE0008007230840039
:102B4000000883120313A000840A0008A100840A6D
:102B50000008A200840A0008A3000310220D230D20
:102B6000A4002408AD002D08031DB72DB82DC12DDC
:102B70000030F5000030F4000030F3000030F200C7
:102B8000C92E753084000008A000840A0008A10046
:102B9000840A0008A200840A0008A3000310220D82
:102BA000230DA4002408AC002C08031DD82DD92D1A
:102BB000DA2DB82D7230840000308004840A003091
:102BC0008004840A80308004840A003080047230DB
:102BD0008400FF308005840AFF308005840AFF30BE
:102BE0008005840A00308005753084000030800440
:102BF000840A00308004840A80308004840A003013
:102C0000800475308400FF308005840AFF30800521
:102C1000840AFF308005840A003080050030AB0054
:102C20000030AA000030A9000030A8007F30AD02BB
:102C3000A0302C07A0002008AD022030A000200802
:102C4000AC000130A0000310A80DA90DAA0DAB0D1A
:102C5000A00B232E753084000008A000840A000811
:102C6000A100840A0008A200840A0008A3007230B0
:102C700084000008A400840A0008A500840A000853
:102C8000A600840A0008A70023082702031D522E6D
:102C900022082602031D522E21082502031D522E52
:102CA00020082402031C552E562E792E75308400E0
:102CB0000008A000840A0008A100840A0008A200FD
:102CC000840A0008A3007230840020088002840A6D
:102CD0002108031C210F8002840A2208031C220FF2
:102CE0008002840A2308031C230A80020330840222
:102CF0002814723084000310800D840A800D840A29
:102D0000800D840A800D8403840384030130AC02A7
:102D1000031D8B2E8C2E212EAD1F8F2E902EAA2EB2
:102D20002D08803A9F3E0318962E972E982EB82D88
:102D300001300310AB0CAA0CA90CA80CFF3E031D1C
:102D4000992E0130A0002008AD07031DA82EA92E42
:102D5000982EC12E20302D02031CAF2EB02EBC2E7B
:102D6000B82D0130A0000310A80DA90DAA0DAB0DC0
:102D7000A00BB32E0130AD022D08031DC02EC12EB5
:102D8000B12E2B08F5002A08F4002908F3002808C2
:102D9000F2000800831203134C08D2004D08D30040
:102DA0004E08D4000310530D540DD5005508D8001B
:102DB0004F08D2005008D3005108D4000310530D1F
:102DC000540DD5005508D70058080319E82EE92EF0
:102DD000F92E570858020318EE2EEF2E002F570831
:102DE000D2005808D20219305202031CF82EF92ED4
:102DF000002F4F08CC005008CD005108CE00FF2F07
:102E000057080319042F052F152F580857020318C8
:102E10000A2F0B2F162F5808D2005708D20219304C
:102E20005202031C142F152F162FFF2F0630D2002D
:102E30005208D600CE1F1D2F1E2F1F2FD617D11FB1
:102E4000222F232F242F5617CD17FF30CC05FF300C
:102E5000CD050030CE05D017FF30CF05FF30D005AF
:102E60000030D105570858020318372F382F642F28
:102E700001300310CF0DD00DD10DFF3E031D392FB2
:102E80000130D702570858060319472F482F5D2FE6
:102E90000130D60256080739031D4F2F502F382F07
:102EA0005D2F01300310CE0CCD0CCC0CFF3E031D6A
:102EB000522F0130D2005208D80758085706031D78
:102EC000622F632F512F952F580857020318692F2F
:102ED0006A2F952F01300310CC0DCD0DCE0DFF3E86
:102EE000031D6B2F0130D802570858060319792F9C
:102EF0007A2F8F2F0130D60256080739031D812FF4
:102F0000822F6A2F8F2F01300310D10CD00CCF0CE1
:102F1000FF3E031D842F0130D2005208D707580806
:102F20005706031D942F952F832FD61F982F992F67
:102F3000A92FFF30CC06FF30CD06FF30CE06013082
:102F4000CC07003003180130CD07003003180130E2
:102F5000CE07561FAC2FAD2FBD2FFF30CF06FF3051
:102F6000D006FF30D1060130CF0700300318013002
:102F7000D007003003180130D107D6014C08CF0725
:102F80004D08031103184D0A0319C72FD0074E0827
:102F9000031103184E0A0319CE2FD107D11FD12FC9
:102FA000D22FE42FFF30CF06FF30D006FF30D106FE
:102FB0000130CF07003003180130D007003003186C
:102FC0000130D107D601D60A4F08F2005008F300AD
:102FD0005108F4005808D2005208F5005608D300F2
:102FE0005308F6000A168A11A3230A168A117208DA
:102FF00083120313CC007308CD007408CE000800C0
:1037A000F20072088312031388000800F200720806
:1037B0008312031393000800831603139A010C303D
:1037C0009900080071088A00700E8300FE0E7E0EBC
:1037D000090083160313141CEE2BEF2BE92B0800B2
:1037E00083120313981783160313181298160800F0
:1037F00064008001840A0406031900340406F92BCE
:103800000A168A15E9230A168A1583120313130868
:10381000080074087304720403190F2C102C122C66
:103820008030F4060800F20083160313981C192C4C
:103830001A2C142C7208831203139900080000300C
:103840000A168A1581240A168A1501300A168A1565
:1038500081240A168A150800F300F2013A30730237
:103860000318332C342C3C2C30307302031C392CBD
:103870003A2C3C2CF201F20A720C0800F40083127C
:103880000313091474080A168A15D0230A168A1518
:103890008312031309151A30F300F30B4D2C0000AB
:1038A0008312031309110800F5008316031387120E
:1038B000751D5B2C5C2C602C740894008715642C9F
:1038C000720874049400871175087304831203133B
:1038D0009400080083120313AB00AA012B1C712C67
:1038E000722C762C2808A9002908AA070310A80D15
:1038F0000310AB0C2B08031D7E2C7F2C6E2C2A088A
:103900000800F50083120313091075080A168A15BA
:10391000D0230A168A158312031309150B30F400FD
:103920006230F300F30B922CF40B922C0000831204
:10393000031309110800F8007803031DA02CA12C23
:10394000AD2C76087F3EF7007708F90079080A1653
:103950008A1581240A168A15BE2C02307806031DAA
:10396000B22CB32CBE2C7608BF3EF7007708F900C6
:1039700079080A168A1581240A168A150800831206
:1039800003135B085A0459040319C72CC82CCA2C0A
:103990008030DB065C08CC005D08CD005E08CE0000
:1039A0005908CF005A08D0005B08D1000A168A11C6
:1039B000CA260A168A15831203134C08D9004D082B
:1039C000DA004E08DB00080083120313A501A11FD3
:1039D000EA2CEB2CF22CA009A109A00A0319A10AD8
:1039E000A501A50A2008F2002108F300F4018E3099
:1039F000A3002308F5002508A4002408F6000A16F1
:103A00008A11A3230A168A15720883120313A000D1
:103A10007308A1007408A20008008E3083120313FB
:103A2000A4002408A500212D01300310A30CA20C32
:103A3000A10CA00CFF3E031D152D0130A40024088D
:103A4000A507FF302305031D262D272D142D200843
:103A5000F2002108F3002208F4002508A40024083D
:103A6000F500F6010A168A11A3230A168A157208B0
:103A700083120313A0007308A1007408A2000800B9
:103A80008312031307100330F4009730F300F30B95
:103A9000472DF40B472D4C2D00300A168A15D623DE
:103AA0000A168A150A168A1500240A168A15F300C2
:103AB0007308FB000330F4009730F300F30B5E2D26
:103AC000F40B5E2D632D8312031307140230F500EF
:103AD0000430F400BA30F300F30B6C2DF40B6C2DB2
:103AE000F50B6C2D000008008312031387100330C0
:103AF000F4009730F300F30B7B2DF40B7B2D802D1E
:103B000000300A168A15D6230A168A150A168A154F
:103B100000240A168A15F3007308FA000330F40033
:103B20009730F300F30B922DF40B922D972D831207
:103B3000031387140230F5000430F400BA30F300A8
:103B4000F30BA02DF40BA02DF50BA02D0000080009
:103B50008312031307110330F4009730F300F30BC3
:103B6000AF2DF40BAF2DB42D00300A168A15D623D5
:103B70000A168A150A168A1500240A168A15F300F1
:103B8000730883120313EE000330F4009730F30040
:103B9000F30BC82DF40BC82DCD2D8312031307157D
:103BA0000230F5000430F400BA30F300F30BD62DE8
:103BB000F40BD62DF50BD62D00000800F41FE12DD7
:103BC000E22DEF2D7208003CF2007308031C730F06
:103BD000003CF3007408031C740F803CF400F71FD2
:103BE000F22DF32D002E7508003CF5007608031C1D
:103BF000760F003CF6007708031C770F803CF70037
:103C00008030F4068030F70677087402031D0E2E0C
:103C100076087302031D0E2E750872020318112E0A
:103C2000122E142E0310152E0314080072087304AC
:103C300003191B2E1C2E4B2EF701F70A2A2E0130DA
:103C40000310F20DF30DFF3E031D202E0130F60090
:103C50007608F707F31F2D2E2E2E1F2E73087502E0
:103C6000031D342E72087402031C372E382E3E2E8C
:103C70007208F4027308031CF503F5020130031007
:103C8000F30CF20CFF3E031D3F2E0130F702031D23
:103C90004A2E4B2E2E2E7508F3007408F2000800F1
:103CA00007300A168A11AA210A168A1583160317E5
:103CB0008801890183160313850186018801890122
:103CC0008312031385018601870188018901831608
:103CD00003130710831203130714831603138710AB
:103CE000831203138714831603130711831203131C
:103CF00007150A168A15DC230A168A150A168A156C
:103D0000F0230A168A15F201F301F40120300A1695
:103D10008A1554240A168A15080083120313A50174
:103D2000A601200821040319962E972ECE2EA40159
:103D3000A40AA52E01300310A00DA10DFF3E031D06
:103D40009B2E0130F8007808A407A11FA82EA92EE9
:103D50009A2E01300310A50DA60DFF3E031DAA2EBD
:103D600021082302031DB62E20082202031CB92EAF
:103D7000BA2EC12E2008A2022108031CA303A3020D
:103D8000251401300310A10CA00CFF3E031DC22E10
:103D90000130A402031DCD2ECE2EA92E2608A1008F
:103DA0002508A000080083120313A001A101FC2E26
:103DB00020087507F8007608F7000318F70AA01F17
:103DC000E22EF7037708F900790883120313FF0046
:103DD000780884000A168A1100200A168A150A1625
:103DE0008A153E240A168A15013083120313A00790
:103DF0000318A10A0030A10720087507F80076080B
:103E0000F7000318F70AA01F062FF7037708F90039
:103E1000790883120313FF00780884000A168A11B8
:103E200000200A168A15003A031D172F182FD82EC6
:103E3000080000300A168A15D0230A168A15343075
:103E4000F700F130F600F60B232FF70B232F282F66
:103E500030300A168A1581240A168A150D30F700AB
:103E6000FB30F600F60B322FF70B322F372F3030A6
:103E70000A168A1581240A168A151D30F70091301A
:103E8000F600F60B412FF70B412F30300A168A153A
:103E900081240A168A1538300A168A1581240A16D2
:103EA0008A150C300A168A1581240A168A150130E3
:103EB0000A168A1581240A168A1506300A168A15EA
:103EC00081240A168A1508000A168A1550260A1631
:103ED0008A15831203138601EE010A168A15192723
:103EE0000A168A150A168A151F240A168A15F6015B
:103EF000F60A01300A168A159B240A168A157730AD
:103F0000F5008030F6000A168A15D3260A168A159F
:103F10000A168A15A8250A168A150A168A15402532
:103F20000A168A150A168A1574250A168A150A169B
:103F30008A1135230A168A150A128A11BD270A1614
:103F40008A150A168A1106220A168A150A168A1571
:103F5000AF270A168A15882F0A128A110C28F60133
:103F6000F60A02300A168A159B240A168A15C730EB
:103F7000F5000030F6000A168A15D3260A168A15AF
:103F8000073083120313A2002208F60002300A163B
:103F90008A159B240A168A15BF30F5000030F600FA
:103FA0000A168A15D3260A168A15103083120313AF
:103FB000A2002208F60002300A168A159B240A166F
:103FC0008A15BA30F5008030F6000A168A15D32615
:103FD0000A168A150E3083120313A2002208F60077
:103FE00002300A168A159B240A168A15B730F50086
:103FF0000030F6000A168A15D3260A168A1508001C
:04400E00D620FF3F7A
:00000001FF
