:020000040000FA
:060000000A128A110C280F
:10000800FE00030EF0000A08F1000A128A11992C6A
:100018000A128A110F28FA01FB0183132030840089
:100028003C300A128A118A240A128A1183010A12A0
:100038008A11832983120313CA004330C500450877
:10004800C8006C2925304E0603192B282C2838287F
:100058004E08C5004A088400450883138000013013
:10006800C5004508CA076C29C901420884000A125C
:100078008A116D230A128A112E3A031D4428452835
:100088007C280130C5004508C207CD016B288312C2
:1000980003134D08C5004508F2000A300A128A11F8
:1000A80039240A128A1183120313C6004608CD00A8
:1000B800420884000A128A116D230A128A11D03E5E
:1000C800C5004508CD070130C5004508C2074208EC
:1000D80084000A128A116D230A128A110A128A11DF
:1000E80062240A128A1103187A287B284B287D2853
:1000F800CD01013083120313C207FF304207840089
:100108000A128A116D230A128A11CE00C500C6018F
:100118004608003A031991286C294508003A031942
:100128007E29643A03199C280D3A03199C286C29E6
:100138004808840083130008CB00840A0008CC0018
:100148000230C5004508C807CC1FAB28AC28B52825
:100158000330C5004508C904CB09CC09CB0A0319EB
:10016800CC0A4D08031DB928BA28C4284B084C04EA
:10017800031DBF28C028C4280130C5004508CD0785
:10018800CE01CE0A4E08C5004507013E84000A127A
:100198008A116D230A128A11C6000A128A116D2368
:1001A8000A128A11C70047084C02031DDD284608B9
:1001B8004B020318E028E128E228EC280130C500AA
:1001C8004508CE0705304E06031DEB28EC28C62847
:1001D8004D08C500C601C51BC6034608803A803CC9
:1001E800031DF82845084E020318FB28FC28FD28A3
:1001F8001729831203134D08C500C601C51BC60382
:100208004608803AC70080304702031D0D294E0872
:1002180045020318102911291729831203134E08C0
:10022800C5004508CD008312031349080339031993
:100238001E291F2963292D30C5004A088400450856
:10024800831380000130C5004508CA0763290A30B6
:10025800BC000030BD004D08C5004507013E8400C4
:100268000A128A116D230A128A11F2000A128A11DF
:100278006D230A128A11F3004C08F5004B08F400AC
:100288000A128A11E3220A128A11730883120313CD
:10029800BF007208BE000A128A1127230A128A11A7
:1002A800831203133C08303EC6004608CE004E08B1
:1002B800C5004A0884004508831380002629FF30BA
:1002C800C5004508CD074D0A031D6B296C292B294C
:1002D8000130C207FF30420784000A128A116D23D9
:1002E8000A128A11C5004508CE004E08031D7D2953
:1002F8007E2926284A0884008313800108000A12F0
:100308008A1192230A128A11831203138601FA01B1
:100318000A128A1152220A128A110A128A117424A4
:100328000A128A11023083120313D2005208F6000F
:1003380001300A128A11B9230A128A110B30F5000A
:100348008030F6000A128A119D220A128A1183123D
:1003580003130711033083120313D3009730D2001D
:10036800D20BB429D30BB42900300A128A11A02465
:100378000A128A110A128A1181240A128A11831216
:100388000313D2005208FA00033083120313D30078
:100398009730D200D20BCE29D30BCE298312031368
:1003A8000715023083120313D4000430D300B93088
:1003B800D200D20BDD29D30BDD29D40BDD29E429AA
:1003C8007A088312031386000A128A114E240A122D
:1003D8008A110A128A110D240A128A11AB290A12EB
:1003E8008A110C28F4002E2A831603130F138F1278
:1003F8000F12502A831603130F138F120F16502A49
:10040800831603130F138F160F12502A8316031324
:100418000F138F160F16502A831603130F178F12F8
:100428000F12502A831603130F178F120F16502A14
:10043800831603130F178F160F12502A83160313F0
:100448000F178F160F16502A831603130F178F16C0
:100458000F12502A7408F200F3017308003A0319C6
:10046800362A282A7208003A0319F829013A03198A
:10047800FE29033A0319042A013A03190A2A073AFA
:100488000319102A013A0319162A033A03191C2AD8
:10049800013A0319222A282A0F14080000300A12E8
:1004A8008A11A6240A128A113430F700F130F600B6
:1004B800F60B5C2AF70B5C2A612A30300A128A1183
:1004C800DD230A128A110D30F700FB30F600F60B17
:1004D8006B2AF70B6B2A702A30300A128A11DD2337
:1004E8000A128A111D30F7009130F600F60B7A2AAD
:1004F800F70B7A2A30300A128A11DD230A128A1180
:1005080038300A128A11DD230A128A110C300A12B5
:100518008A11DD230A128A1101300A128A11DD2399
:100528000A128A1106300A128A11DD230A128A1168
:10053800080083120313BC01BD01C62A3C087507D5
:10054800F8007608F7000318F70ABC1FAC2AF7036F
:100558007708F900790883120313FF0078088400EC
:100568000A128A1163230A128A110A128A11232491
:100578000A128A11013083120313BC070318BD0A3B
:100588000030BD073C087507F8007608F700031827
:10059800F70ABC1FD02AF7037708F90079088312F5
:1005A8000313FF00780884000A128A1163230A12D1
:1005B8008A11003A031DE12AE22AA22A0800F7015B
:1005C800F801720873040319EA2AEB2A222BF901AD
:1005D800F90AF92A01300310F20DF30DFF3E031D4D
:1005E800EF2A0130F6007608F907F31FFC2AFD2AE6
:1005F800EE2A01300310F70DF80DFF3E031DFE2A09
:1006080073087502031D0A2B72087402031C0D2B54
:100618000E2B152B7208F4027308031CF503F50260
:10062800771401300310F30CF20CFF3E031D162B58
:100638000130F902031D212B222BFD2A7808F30033
:100648007708F2000800831203133C083D040319DD
:100658002E2B2F2B5E2BC101C10A3D2B013003101D
:10066800BC0DBD0DFF3E031D332B0130C0004008FB
:10067800C107BD1F402B412B322B3D083F02031DF4
:10068800472B3C083E02031C4A2B4B2B512B3C08A2
:10069800BE023D08031CBF03BF0201300310BD0C9E
:1006A800BC0CFF3E031D522B0130C102031D5D2B04
:1006B8005E2B412B3F08BD003E08BC000800FF1B15
:1006C8006D2B83137F1883170008840A0319FF0A08
:1006D800080003308A000408840A820700340134C1
:1006E80000340A34003464340034E83403341034F9
:1006F8002734533431343A342034203420345334BA
:1007080032343A34203420342034533433343A34B5
:10071800003425342E3433346934003407300A1257
:100728008A11F6210A128A11831603178801890192
:100738008316031385018601880189018312031337
:100748008501860187018801890183160313071132
:10075800831203130715F201F301F40120300A1282
:100768008A11F7230A128A110800F8007803031D7A
:10077800BE2BBF2BCB2B76087F3EF7007708F900FE
:1007880079080A128A11DD230A128A11DC2B023039
:100798007806031DD02BD12BDC2B7608BF3EF70043
:1007A8007708F90079080A128A11DD230A128A11DA
:1007B8000800F50083120313091075080A128A113C
:1007C800A6240A128A118312031309150B30F400A8
:1007D8006230F300F30BEE2BF40BEE2B00008312C8
:1007E800031309110800F500831603138712751DFA
:1007F800FE2BFF2B032C740894008715072C720816
:100808007404940087117508730483120313940009
:100818000800023083120313BE003E08F6000230BF
:100828000A128A11B9230A128A113430F5000030ED
:10083800F6000A128A119D220A128A110800F40091
:1008480083120313091474080A128A11A6240A12BF
:100858008A118312031309151A30F300F30B322C93
:1008680000008312031309110800F500F401751C38
:100878003E2C3F2C432C7208F3007308F407031036
:10088800F20D0310F50C7508031D4B2C4C2C3B2C5A
:10089800740808001B3083120313CF004F08C200EE
:1008A8007A08D000D1015008C3005108C400343080
:1008B8000A128A111E200A128A110800F300F20196
:1008C8003A3073020318692C6A2C722C3030730288
:1008D800031C6F2C702C722CF201F20A720C0800A7
:1008E80000300A128A11DD230A128A1101300A1215
:1008F8008A11DD230A128A1108000A128A11922429
:100908000A128A1183120313130808006400800175
:10091800840A04060319003404068B2C8316031377
:10092800141C972C982C922C080071088A00700EC1
:100938008300FE0E7E0E0900F20072088312031374
:1009480093000800F200720883120313880008005D
:04400E00D620FF3F7A
:00000001FF
