:020000040000FA
:060000000A128A110C280F
:10000800FE00030EF1000A08F2000A128A11E02924
:100018000A128A110F28F801F901FA0183010A125C
:100028008A11DB2883120313A701A31F1C281D288C
:100038002428A209A309A20A0319A30AA701A70A47
:10004800A51F272828283128A409A509A40A0319C7
:10005800A50A0130F7007708A706A801A901220818
:1000680023040319382839287028A601A60A472826
:1000780001300310A20DA30DFF3E031D3D280130E2
:10008800F7007708A607A31F4A284B283C28013009
:100098000310A80DA90DFF3E031D4C2823082502B7
:1000A800031D582822082402031C5B285C286328A7
:1000B8002208A4022308031CA503A5022814013062
:1000C8000310A30CA20CFF3E031D64280130A602F6
:1000D800031D6F2870284B282708031974287528D2
:1000E8007A28A809A909A80A0319A90A2908A300AE
:1000F8002808A2000800F500B728831603130F1379
:100108008F120F12D928831603130F138F120F168D
:10011800D928831603130F138F160F12D9288316A5
:1001280003130F138F160F16D928831603130F17EF
:100138008F120F12D928831603130F178F120F1659
:10014800D928831603130F178F160F12D928831671
:1001580003130F178F160F16D928831603130F17BB
:100168008F160F12D9287508F300F4017408003AA5
:100178000319BF28B1287308003A03198128013AE6
:1001880003198728033A03198D28013A031993287C
:10019800073A03199928013A03199F28033A0319C2
:1001A800A528013A0319AB28B1280F1408000A1230
:1001B8008A116B210A128A11063083120313AB00CD
:1001C8002F30AA00AA0BE628AB0BE628EB288312EF
:1001D80003139F1418291E08AA002A08FA00FF30E2
:1001E800A2000030A3001E08AA00AB012A08F300F1
:1001F8002B08F4009630F5000030F6000A128A1138
:100208009F210A128A11740883120313A500730828
:10021800A4000A128A1116200A128A1183120313E3
:100228002308F9002208F8009F181B291C29EF2829
:100238000A128A1125210A128A11E0280A128A1143
:100248000C287908803AFF0080307F02031D2E2990
:100258001A307802031831293229382983120313F6
:100268000910891009156A297908803AFF00803039
:100278007F02031D41291A307802031C44294529AD
:1002880058297908803AFF0080307F02031D4E29E3
:10029800253078020318512952295829831203134B
:1002A8000910891409116A297908803AFF008030F9
:1002B8007F02031D612925307802031C6429652902
:1002C8006A298312031309148910091108000730D9
:1002D8000A128A117F200A128A11831603138113C6
:1002E8000130831603178800890101308316031330
:1002F800850086018701880189018312031385011E
:10030800860187018801890141309F008316031304
:100318001F160A128A11F6210A128A11831603136C
:100328008516F301F401F50124300A128A11CA2155
:100338000A128A11080083120313A001A101731C79
:10034800A629A729AF29750883120313A007031844
:10035800A10A7608A10701300310F50DF60DFF3E3E
:10036800031DB02901300310F40CF30CFF3E031DEC
:10037800B72973087404031DC229C329A32983124A
:1003880003132108F4002008F3000800F600831680
:1003980003138712761DD129D229D629750894000E
:1003A8008715DA2973087504940087117608740490
:1003B8008312031394000800831203138C1DE5298C
:1003C800E629EF297A080A128A11FF210A128A11EE
:1003D800831203138C1172088A00710E8300FE0EBB
:1003E8007E0E09008B170B17831203138C118316CB
:1003F80003138C150800F000700883120313930090
:020408000800EA
:04400E00D620FF3F7A
:00000001FF
