:020000040000FA
:060000000A128A110C280F
:10000800FE00030EF2000A08F3000A128A11AD2856
:100018000A128A110F28F701F801F90183010A125F
:100028008A11E828F6004E28831603130F138F123F
:100038000F127028831603130F138F120F167028D0
:10004800831603130F138F160F12702883160313CA
:100058000F138F160F167028831603130F178F129E
:100068000F127028831603130F178F120F1670289C
:10007800831603130F178F160F1270288316031396
:100088000F178F160F167028831603130F178F1666
:100098000F1270287608F400F5017508003A031964
:1000A800562848287408003A03191828013A0319F1
:1000B8001E28033A03192428013A03192A28073A63
:1000C80003193028013A03193628033A03193C2842
:1000D800013A0319422848280F14080006300A126A
:1000E8008A1116200A128A11013083160317880014
:1000F80089010130831603138500831203138501D8
:1001080003308316031386008312031386018316B4
:1001180003138701831203138701831603138801CE
:1001280083120313880183160313890183120313AF
:1001380089018B178B150B1083160313161496144D
:100148000B170C17831203130C13C1309F009F1455
:1001580008000B1CB028B128CA2883120313061CF8
:10016800B628B728BF280618BA28BB28B7280130F0
:10017800F0007008F807861CC228C328C92886180A
:10018800C628C728C3280130F8020B1083120313AE
:100198000C1FCF28D028E1281E08F0007008F700AF
:1001A8000C131A30F100F830F000F00BD928F10BDD
:1001B800D9280000831203139F1473088A00720E53
:1001C8008300FE0E7E0E0900F8010A128A117220C1
:1001D8000A128A110A128A110F210A128A110A12A6
:1001E8008A1109210A128A1178087702031CFD284E
:1001F800FE280229831203130914EE28831203131D
:100208000910EE280A128A110C2883120313891484
:10021800770888000800780883120313870008000D
:04400E00D120FF3F7F
:00000001FF
