:020000040000FA
:060000000A128A110C280F
:10000800FE00030EF1000A08F2000A128A11A02865
:100018000A128A110F28F601F70183010A128A11C0
:10002800C428F5004D28831603130F138F120F12DF
:100038006F28831603130F138F120F166F2883165A
:1000480003130F138F160F126F28831603130F1342
:100058008F160F166F28831603130F178F120F12A0
:100068006F28831603130F178F120F166F28831626
:1000780003130F178F160F126F28831603130F170A
:100088008F160F166F28831603130F178F160F126C
:100098006F287508F300F4017408003A031955280D
:1000A80047287308003A03191728013A03191D282D
:1000B800033A03192328013A03192928073A03198F
:1000C8002F28013A03193528033A03193B28013A26
:1000D8000319412847280F14080006300A128A110C
:1000E80015200A128A110130831603178800890126
:1000F800013083160313850083120313850103302F
:1001080083160313860083120313860183160313D1
:10011800870183120313870183160313880183124F
:1001280003138801831603138901831203138901BA
:100138008B178B150B1008000B1CA328A428BD28AF
:1001480083120313061CA928AA28B2280618AD286A
:10015800AE28AA280130F0007008F607861CB528DA
:10016800B628BC288618B928BA28B6280130F6025D
:100178000B1072088A00710E8300FE0E7E0E0900B5
:10018800F6010A128A1171200A128A110A128A11BA
:10019800D4200A128A110B14CA280A128A110C28B0
:0A01A8007608831203138700080095
:04400E00D120FF3F7F
:00000001FF
