:020000040000FA
:060000000A128A110C280F
:10000800FE00030EF2000A08F3000A128A11722891
:100018000A128A110F28F701F801F90183010A125F
:100028008A11E928F6004E28831603130F138F123E
:100038000F127028831603130F138F120F167028D0
:10004800831603130F138F160F12702883160313CA
:100058000F138F160F167028831603130F178F129E
:100068000F127028831603130F178F120F1670289C
:10007800831603130F178F160F1270288316031396
:100088000F178F160F167028831603130F178F1666
:100098000F1270287608F400F5017508003A031964
:1000A800562848287408003A03191828013A0319F1
:1000B8001E28033A03192428013A03192A28073A63
:1000C80003193028013A03193628033A03193C2842
:1000D800013A0319422848280F1408000B1C7528F8
:1000E80076288F2883120313061C7B287C288428F3
:1000F80006187F2880287C280130F0007008F8074F
:10010800861C872888288E2886188B288C2888287B
:100118000130F8020B10831203130C1F9428952842
:10012800A72809141E08F0007008F7000C131A30ED
:10013800F100F830F000F00B9F28F10B9F28000029
:10014800831203139F1473088A00720E8300FE0E35
:100158007E0E090006300A128A1116200A128A1128
:1001680001308316031788008901013083160313B1
:100178008500831203138501033083160313860059
:100188008312031386018316031387018312031353
:1001980087018316031388018312031388018316CA
:1001A800031389018312031389018B178B150B1015
:1001B80083160313161496140B170C1783120313C4
:1001C8000C13C1309F009F140800F8010A128A110D
:1001D800AE200A128A110A128A1103210A128A1100
:1001E8000A128A11FD200A128A11EF280A128A11AE
:1001F8000C288312031389147708880008007808EC
:080208008312031387000800B4
:04400E00D120FF3F7F
:00000001FF
