:020000040000FA
:060000000A128A110C280F
:10000800FE00030EF6000A08F7000A128A11AE284D
:100018000A128A110F28F801F901FA01FB01FC0103
:10002800FD0183120313A401A501A60183010A128D
:100038008A11B62983120313A20072283F30A00048
:100048002008FD00AC280630A0002008FD00AC28E0
:10005800DB30A0002008FD00AC284F30A0002008AD
:10006800FD00AC286630A0002008FD00AC286D30EB
:10007800A0002008FD00AC287D30A0002008FD006D
:10008800AC280730A0002008FD00AC287F30A00075
:100098002008FD00AC286F30A0002008FD00AC2827
:1000A8007730A0002008FD00AC287C30A000200894
:1000B800FD00AC283930A0002008FD00AC285E30D7
:1000C800A0002008FD00AC287930A0002008FD0021
:1000D800AC287130A0002008FD00AC282208A00040
:1000E800A1012108003A03197A2822282008003A99
:1000F80003192228013A03192728033A03192C283F
:10010800013A03193128073A03193628013A031925
:100118003B28033A03194028013A031945280F3AA6
:1001280003194A28013A03194F28033A0319542896
:10013800013A03195928073A03195E28013A0319A5
:100148006328033A03196828013A03196D282228FD
:100158007D0808000B1CB128B228CB288312031392
:10016800061CB728B828C0280618BB28BC28B828F9
:100178000130F2007208FC07861CC328C428CA286C
:100188008618C728C828C4280130FC020B1083121F
:1001980003130C1FD028D12816291E08F200720854
:1001A800F000831603131E080A128A11E5210A12A9
:1001B8008A11F300F401730883120313A40074086E
:1001C800A5007B08F20004300310F20CFF3E031D6B
:1001D800E8280F307205F3007B080F39F40003306C
:1001E8000310F40DFF3E031DF4280310740D73046F
:1001F800F5007508FB0024080F39F2007208FA00B0
:100208007B080F39F2007208F9000C131A30F3005A
:10021800F830F200F20B0E29F30B0E2900008312BE
:1002280003139F1477088A00760E8300FE0E7E0E55
:10023800090083120313A2005729831603130F130F
:100248008F120F127929831603130F138F120F16AB
:100258007929831603130F138F160F127929831622
:1002680003130F138F160F167929831603130F170D
:100278008F120F127929831603130F178F120F1677
:100288007929831603130F178F160F1279298316EE
:1002980003130F178F160F167929831603130F17D9
:1002A8008F160F1279292208A000A1012108003A0F
:1002B80003195F2951292008003A03192129013A15
:1002C80003192729033A03192D29013A0319332958
:1002D800073A03193929013A03193F29033A03193F
:1002E8004529013A03194B2951290F1408000630F2
:1002F8000A128A111D210A128A1101308316031766
:1003080088008901013083160313850083120313C3
:1003180085010330831603138600831203138601B5
:1003280083160313870183120313870183160313AC
:10033800880183120313880183160313890183122A
:10034800031389018B178B150B10831603131614CF
:1003580096140B170C17831203130C13C1309F004C
:100368009F140800FC010A128A117B210A128A11C3
:100378000A128A11ED210A128A1183120313091530
:100388007A080A128A111E200A128A11831203138C
:1003980088002508803AA30080302302031DD6294F
:1003A8007C082402031CD929DA29DE2983120313C5
:1003B8000914BC29831203130910BC290A128A11D3
:1003C8000C28831203131E08F1007108F80078083E
:0C03D80008007C08831203138700080053
:04400E00D120FF3F7F
:00000001FF
