:020000040000FA
:060000000A128A110C280F
:10000800FE00030EF1000A08F2000A128A11A12864
:100018000A128A110F28F901FA0183010A128A11BA
:10002800BF28F5004D28831603130F138F120F12E4
:100038006F28831603130F138F120F166F2883165A
:1000480003130F138F160F126F28831603130F1342
:100058008F160F166F28831603130F178F120F12A0
:100068006F28831603130F178F120F166F28831626
:1000780003130F178F160F126F28831603130F170A
:100088008F160F166F28831603130F178F160F126C
:100098006F287508F300F4017408003A031955280D
:1000A80047287308003A03191728013A03191D282D
:1000B800033A03192328013A03192928073A03198F
:1000C8002F28013A03193528033A03193B28013A26
:1000D8000319412847280F14080007300A128A110B
:1000E80015200A128A110130831603178800890126
:1000F8000130831603138500860187018801890171
:1001080083120313850186018701880189018316FB
:1001180003139F014130831203139F000A128A11AF
:10012800EF200A128A11F301F401F50124300A12B2
:100138008A11D9200A128A110800831203138C1D10
:10014800A628A728B8280A128A11F8200A128A11A4
:1001580083120313880006080A128A1108210A125A
:100168008A11831203138C1172088A00710E83009E
:10017800FE0E7E0E09000A128A1171200A128A11D7
:10018800831203139F14D1281E08F700F80177087B
:10019800F9007808FA00790887009F18D428D5282C
:1001A800C828C4280A128A110C28F60083160313DB
:1001B8008712761DE028E128E52875089400871540
:1001C800E92873087504940087117608740483126B
:1001D8000313940008008B170B17831203138C1159
:1001E800831603138C1508000A128A1101210A12BA
:1001F8008A11831203131308080083160313141CAF
:100208000629072901290800F00070088312031342
:040218009300080047
:04400E00D620FF3F7A
:00000001FF
