:020000040000FA
:060000000A128A110C280F
:10000800FE00030EF1000A08F2000A128A111529EF
:100018000A128A110F28F901FA0183120313B10198
:10002800B20183010A128A11EC280030F70000306F
:10003800F6000030F5000030F400831203132308A3
:1000480022042104200403192A282B287828F801DF
:10005800F80A3B280130F3000310A00DA10DA20DF2
:10006800A30DF30B30280130F3007308F807A31F22
:100078003E283F282E280130F3000310F40DF50D1B
:10008800F60DF70DF30B412823082702031D562808
:1000980022082602031D562821082502031D56287A
:1000A80020082402031C59285A2869282008A40279
:1000B8002108031C210FA5022208031C220FA602F7
:1000C8002308031C230FA702741401300310A30C88
:1000D800A20CA10CA00CFF3E031D6A280130F802F7
:1000E800031D772878283F287708A3007608A20000
:1000F8007508A1007408A0000800283083120313B3
:100108009400831603139101831203132808AC008B
:100118002908AD002A08AE002B08AF0002300310F2
:10012800AC0DAD0DAE0DAF0DFF3E031D93282F088E
:10013800A3002E08A2002D08A1002C08A000003062
:10014800A7007A30A6001230A5000030A4000A12D9
:100158008A1119200A128A11831203132008FF3EFC
:100168008316031393009401871507160800831656
:100178000317880189018316031385018601870106
:10018800880189018312031385018601870188018B
:1001980089010A128A114A210A128A110A128A113D
:1001A80027210A128A110A128A1150210A128A1169
:1001B800003083120313AB000130AA008630A90077
:1001C800A030A8000A128A1181200A128A11080098
:1001D8000A128A11BB200A128A11013083120313F2
:1001E800B0003008B30031080A128A1133210A120C
:1001F8008A110D300A128A1133210A128A110A3023
:100208000A128A1133210A128A1101308312031348
:10021800B1070318B20A0030B207F7280A128A1188
:100228000C28831203138C1E1A291B2920291A084B
:10023800F0007008FA00FA0172088A00710E830053
:10024800FE0E7E0E090083120313981783160313FC
:10025800181298168312031318169A010800F3004F
:1002680083160313981C39293A29342973088312F1
:1002780003139900080001308A000408840A8207E1
:10028800003448346F346C346134003483160313FB
:100298009A010C30990008008B170B17831603136B
:0402A8008C160800A8
:04400E00D420FF3F7C
:00000001FF
